{
  "contractName": "CoinflipMainV1",
  "abi": [
    {
      "constant": false,
      "inputs": [
        {
          "name": "_myid",
          "type": "bytes32"
        },
        {
          "name": "_result",
          "type": "string"
        }
      ],
      "name": "__callback",
      "outputs": [],
      "payable": false,
      "stateMutability": "nonpayable",
      "type": "function"
    },
    {
      "constant": false,
      "inputs": [],
      "name": "claimRewards",
      "outputs": [],
      "payable": false,
      "stateMutability": "nonpayable",
      "type": "function"
    },
    {
      "constant": false,
      "inputs": [
        {
          "name": "_myid",
          "type": "bytes32"
        },
        {
          "name": "_result",
          "type": "string"
        },
        {
          "name": "_proof",
          "type": "bytes"
        }
      ],
      "name": "__callback",
      "outputs": [],
      "payable": false,
      "stateMutability": "nonpayable",
      "type": "function"
    },
    {
      "constant": true,
      "inputs": [],
      "name": "getMsgToChain",
      "outputs": [
        {
          "name": "",
          "type": "string"
        }
      ],
      "payable": false,
      "stateMutability": "view",
      "type": "function"
    },
    {
      "constant": true,
      "inputs": [
        {
          "name": "_user",
          "type": "address"
        }
      ],
      "name": "getName",
      "outputs": [
        {
          "name": "",
          "type": "string"
        }
      ],
      "payable": false,
      "stateMutability": "view",
      "type": "function"
    },
    {
      "constant": false,
      "inputs": [],
      "name": "emergencyClaimAllRewards",
      "outputs": [],
      "payable": false,
      "stateMutability": "nonpayable",
      "type": "function"
    },
    {
      "constant": true,
      "inputs": [],
      "name": "getContractBalance",
      "outputs": [
        {
          "name": "",
          "type": "uint256"
        }
      ],
      "payable": false,
      "stateMutability": "view",
      "type": "function"
    },
    {
      "constant": false,
      "inputs": [
        {
          "name": "_newMinimum",
          "type": "uint256"
        }
      ],
      "name": "updateMinimumBet",
      "outputs": [],
      "payable": false,
      "stateMutability": "nonpayable",
      "type": "function"
    },
    {
      "constant": true,
      "inputs": [],
      "name": "getTotalReward",
      "outputs": [
        {
          "name": "",
          "type": "uint256"
        }
      ],
      "payable": false,
      "stateMutability": "view",
      "type": "function"
    },
    {
      "constant": false,
      "inputs": [
        {
          "name": "_msg",
          "type": "string"
        }
      ],
      "name": "setMsgToChain",
      "outputs": [],
      "payable": false,
      "stateMutability": "nonpayable",
      "type": "function"
    },
    {
      "constant": false,
      "inputs": [],
      "name": "pause",
      "outputs": [],
      "payable": false,
      "stateMutability": "nonpayable",
      "type": "function"
    },
    {
      "constant": true,
      "inputs": [],
      "name": "getSettings",
      "outputs": [
        {
          "name": "min",
          "type": "uint256"
        },
        {
          "name": "max",
          "type": "uint256"
        },
        {
          "name": "fact",
          "type": "uint256"
        }
      ],
      "payable": false,
      "stateMutability": "view",
      "type": "function"
    },
    {
      "constant": true,
      "inputs": [],
      "name": "getPauseState",
      "outputs": [
        {
          "name": "",
          "type": "bool"
        }
      ],
      "payable": false,
      "stateMutability": "view",
      "type": "function"
    },
    {
      "constant": false,
      "inputs": [
        {
          "name": "_newMaximum",
          "type": "uint256"
        }
      ],
      "name": "updateMaximumBet",
      "outputs": [],
      "payable": false,
      "stateMutability": "nonpayable",
      "type": "function"
    },
    {
      "constant": false,
      "inputs": [
        {
          "name": "_n",
          "type": "string"
        }
      ],
      "name": "setName",
      "outputs": [],
      "payable": false,
      "stateMutability": "nonpayable",
      "type": "function"
    },
    {
      "constant": false,
      "inputs": [
        {
          "name": "_firstOne",
          "type": "address"
        }
      ],
      "name": "initialize",
      "outputs": [],
      "payable": false,
      "stateMutability": "nonpayable",
      "type": "function"
    },
    {
      "constant": false,
      "inputs": [],
      "name": "deposit",
      "outputs": [],
      "payable": true,
      "stateMutability": "payable",
      "type": "function"
    },
    {
      "constant": true,
      "inputs": [],
      "name": "getOwnerAdd",
      "outputs": [
        {
          "name": "",
          "type": "address"
        }
      ],
      "payable": false,
      "stateMutability": "view",
      "type": "function"
    },
    {
      "constant": false,
      "inputs": [
        {
          "name": "_newFactor",
          "type": "uint256"
        }
      ],
      "name": "updateJackpotFactor",
      "outputs": [],
      "payable": false,
      "stateMutability": "nonpayable",
      "type": "function"
    },
    {
      "constant": false,
      "inputs": [],
      "name": "emergencyWithdrawAll",
      "outputs": [],
      "payable": false,
      "stateMutability": "nonpayable",
      "type": "function"
    },
    {
      "constant": true,
      "inputs": [],
      "name": "getTotalRewardToClaim",
      "outputs": [
        {
          "name": "",
          "type": "uint256"
        }
      ],
      "payable": false,
      "stateMutability": "view",
      "type": "function"
    },
    {
      "constant": false,
      "inputs": [],
      "name": "unPause",
      "outputs": [],
      "payable": false,
      "stateMutability": "nonpayable",
      "type": "function"
    },
    {
      "inputs": [],
      "payable": false,
      "stateMutability": "nonpayable",
      "type": "constructor"
    },
    {
      "anonymous": false,
      "inputs": [
        {
          "indexed": false,
          "name": "_user",
          "type": "address"
        },
        {
          "indexed": false,
          "name": "_msg",
          "type": "string"
        },
        {
          "indexed": false,
          "name": "_id",
          "type": "uint256"
        },
        {
          "indexed": false,
          "name": "_amount",
          "type": "uint256"
        }
      ],
      "name": "evtBetOpened",
      "type": "event"
    },
    {
      "anonymous": false,
      "inputs": [
        {
          "indexed": false,
          "name": "_user",
          "type": "address"
        },
        {
          "indexed": false,
          "name": "_msg",
          "type": "string"
        }
      ],
      "name": "evtBetQuery",
      "type": "event"
    },
    {
      "anonymous": false,
      "inputs": [
        {
          "indexed": false,
          "name": "_user",
          "type": "address"
        },
        {
          "indexed": false,
          "name": "_msg",
          "type": "string"
        },
        {
          "indexed": false,
          "name": "_randomResult",
          "type": "uint256"
        }
      ],
      "name": "evtBetResume",
      "type": "event"
    },
    {
      "anonymous": false,
      "inputs": [
        {
          "indexed": false,
          "name": "_user",
          "type": "address"
        },
        {
          "indexed": false,
          "name": "_isWon",
          "type": "bool"
        }
      ],
      "name": "evtBetResult",
      "type": "event"
    },
    {
      "anonymous": false,
      "inputs": [
        {
          "indexed": false,
          "name": "_user",
          "type": "address"
        },
        {
          "indexed": false,
          "name": "_status",
          "type": "string"
        },
        {
          "indexed": false,
          "name": "_id",
          "type": "uint256"
        }
      ],
      "name": "evtBetClosed",
      "type": "event"
    },
    {
      "anonymous": false,
      "inputs": [
        {
          "indexed": false,
          "name": "_user",
          "type": "address"
        },
        {
          "indexed": false,
          "name": "_name",
          "type": "string"
        }
      ],
      "name": "evtNameSet",
      "type": "event"
    },
    {
      "anonymous": false,
      "inputs": [
        {
          "indexed": false,
          "name": "_param",
          "type": "string"
        },
        {
          "indexed": false,
          "name": "_value",
          "type": "uint256"
        }
      ],
      "name": "evtSettingsUpdated",
      "type": "event"
    },
    {
      "anonymous": false,
      "inputs": [
        {
          "indexed": false,
          "name": "_param",
          "type": "string"
        },
        {
          "indexed": false,
          "name": "_value",
          "type": "bool"
        }
      ],
      "name": "evtPauseSet",
      "type": "event"
    },
    {
      "anonymous": false,
      "inputs": [
        {
          "indexed": false,
          "name": "_type",
          "type": "string"
        },
        {
          "indexed": false,
          "name": "_origin",
          "type": "address"
        },
        {
          "indexed": false,
          "name": "_newValue",
          "type": "uint256"
        }
      ],
      "name": "evtFundingOperation",
      "type": "event"
    },
    {
      "anonymous": false,
      "inputs": [
        {
          "indexed": false,
          "name": "_msg",
          "type": "string"
        }
      ],
      "name": "evtMsgToChain",
      "type": "event"
    },
    {
      "constant": true,
      "inputs": [
        {
          "name": "_user",
          "type": "address"
        }
      ],
      "name": "getUserPendingBetState",
      "outputs": [
        {
          "name": "",
          "type": "bool"
        }
      ],
      "payable": false,
      "stateMutability": "view",
      "type": "function"
    },
    {
      "constant": false,
      "inputs": [],
      "name": "flip",
      "outputs": [],
      "payable": true,
      "stateMutability": "payable",
      "type": "function"
    },
    {
      "constant": true,
      "inputs": [],
      "name": "runPseudoRandom",
      "outputs": [
        {
          "name": "",
          "type": "uint256"
        }
      ],
      "payable": false,
      "stateMutability": "view",
      "type": "function"
    }
  ],
  "bytecode": "0x60806040523480156200001157600080fd5b506200002c3362000032640100000000026401000000009004565b62000213565b600760405180807f696e697469616c697a6564000000000000000000000000000000000000000000815250600b019050908152602001604051809103902060009054906101000a900460ff1615156200021057806000806101000a81548173ffffffffffffffffffffffffffffffffffffffff021916908373ffffffffffffffffffffffffffffffffffffffff1602179055506001600760405180807f696e697469616c697a6564000000000000000000000000000000000000000000815250600b019050908152602001604051809103902060006101000a81548160ff02191690831515021790555060008060146101000a81548160ff02191690831515021790555066038d7ea4c68000600660405180807f6d696e696d756d42657400000000000000000000000000000000000000000000815250600a01905090815260200160405180910390208190555067016345785d8a0000600660405180807f6d6178696d756d42657400000000000000000000000000000000000000000000815250600a0190509081526020016040518091039020819055506003600660405180807f6a61636b706f74466163746f7200000000000000000000000000000000000000815250600d0190509081526020016040518091039020819055505b50565b6132d380620002236000396000f3fe608060405260043610610183576000357c0100000000000000000000000000000000000000000000000000000000900480638456cb59116100ee578063cde4efa9116100a7578063d919124311610081578063d919124314610976578063dd191719146109b1578063f39c9b00146109c8578063f7b188a5146109f357610183565b8063cde4efa91461090b578063d0e30db014610915578063d66d2a571461091f57610183565b80638456cb591461073857806385b4bb531461074f5780639a44f1fb14610788578063c15174a1146107b7578063c47f0027146107f2578063c4d66de8146108ba57610183565b80635fd4b08a116101405780635fd4b08a146104fe5780636b797762146105c85780636f9fb98a146105df5780637a6b45001461060a5780637d1fcbfa1461064557806380a3e99b1461067057610183565b806327dc297e1461018857806333de3ba21461025a578063372500ab1461028557806338bbfa501461029c5780635327474514610405578063560ef11714610495575b600080fd5b34801561019457600080fd5b50610258600480360360408110156101ab57600080fd5b8101908080359060200190929190803590602001906401000000008111156101d257600080fd5b8201836020820111156101e457600080fd5b8035906020019184600183028401116401000000008311171561020657600080fd5b91908080601f016020809104026020016040519081016040528093929190818152602001838380828437600081840152601f19601f820116905080830192505050505050509192919290505050610a0a565b005b34801561026657600080fd5b5061026f610a4d565b6040518082815260200191505060405180910390f35b34801561029157600080fd5b5061029a610a83565b005b3480156102a857600080fd5b50610403600480360360608110156102bf57600080fd5b8101908080359060200190929190803590602001906401000000008111156102e657600080fd5b8201836020820111156102f857600080fd5b8035906020019184600183028401116401000000008311171561031a57600080fd5b91908080601f016020809104026020016040519081016040528093929190818152602001838380828437600081840152601f19601f8201169050808301925050505050505091929192908035906020019064010000000081111561037d57600080fd5b82018360208201111561038f57600080fd5b803590602001918460018302840111640100000000831117156103b157600080fd5b91908080601f016020809104026020016040519081016040528093929190818152602001838380828437600081840152601f19601f820116905080830192505050505050509192919290505050610aaa565b005b34801561041157600080fd5b5061041a610ace565b6040518080602001828103825283818151815260200191508051906020019080838360005b8381101561045a57808201518184015260208101905061043f565b50505050905090810190601f1680156104875780820380516001836020036101000a031916815260200191505b509250505060405180910390f35b3480156104a157600080fd5b506104e4600480360360208110156104b857600080fd5b81019080803573ffffffffffffffffffffffffffffffffffffffff169060200190929190505050610b70565b604051808215151515815260200191505060405180910390f35b34801561050a57600080fd5b5061054d6004803603602081101561052157600080fd5b81019080803573ffffffffffffffffffffffffffffffffffffffff169060200190929190505050610bc9565b6040518080602001828103825283818151815260200191508051906020019080838360005b8381101561058d578082015181840152602081019050610572565b50505050905090810190601f1680156105ba5780820380516001836020036101000a031916815260200191505b509250505060405180910390f35b3480156105d457600080fd5b506105dd610cad565b005b3480156105eb57600080fd5b506105f4610f21565b6040518082815260200191505060405180910390f35b34801561061657600080fd5b506106436004803603602081101561062d57600080fd5b8101908080359060200190929190505050610f40565b005b34801561065157600080fd5b5061065a6110e9565b6040518082815260200191505060405180910390f35b34801561067c57600080fd5b506107366004803603602081101561069357600080fd5b81019080803590602001906401000000008111156106b057600080fd5b8201836020820111156106c257600080fd5b803590602001918460018302840111640100000000831117156106e457600080fd5b91908080601f016020809104026020016040519081016040528093929190818152602001838380828437600081840152601f19601f82011690508083019250505050505050919291929050505061116f565b005b34801561074457600080fd5b5061074d61129b565b005b34801561075b57600080fd5b506107646113b2565b60405180848152602001838152602001828152602001935050505060405180910390f35b34801561079457600080fd5b5061079d61147f565b604051808215151515815260200191505060405180910390f35b3480156107c357600080fd5b506107f0600480360360208110156107da57600080fd5b8101908080359060200190929190505050611495565b005b3480156107fe57600080fd5b506108b86004803603602081101561081557600080fd5b810190808035906020019064010000000081111561083257600080fd5b82018360208201111561084457600080fd5b8035906020019184600183028401116401000000008311171561086657600080fd5b91908080601f016020809104026020016040519081016040528093929190818152602001838380828437600081840152601f19601f82011690508083019250505050505050919291929050505061163e565b005b3480156108c657600080fd5b50610909600480360360208110156108dd57600080fd5b81019080803573ffffffffffffffffffffffffffffffffffffffff169060200190929190505050611770565b005b610913611950565b005b61091d6123e8565b005b34801561092b57600080fd5b506109346124f9565b604051808273ffffffffffffffffffffffffffffffffffffffff1673ffffffffffffffffffffffffffffffffffffffff16815260200191505060405180910390f35b34801561098257600080fd5b506109af6004803603602081101561099957600080fd5b8101908080359060200190929190505050612522565b005b3480156109bd57600080fd5b506109c6612633565b005b3480156109d457600080fd5b506109dd612787565b6040518082815260200191505060405180910390f35b3480156109ff57600080fd5b50610a086127cd565b005b610a49828260006040519080825280601f01601f191660200182016040528015610a435781602001600182028038833980820191505090505b50610aaa565b5050565b6000804290506000600282811515610a6157fe5b0690506000811480610a735750600181145b1515610a7b57fe5b809250505090565b600060149054906101000a900460ff16151515610a9f57600080fd5b610aa8336128e2565b565b6000600102600b600080600102815260200190815260200160002081905550505050565b606060018054600181600116156101000203166002900480601f016020809104026020016040519081016040528092919081815260200182805460018160011615610100020316600290048015610b665780601f10610b3b57610100808354040283529160200191610b66565b820191906000526020600020905b815481529060010190602001808311610b4957829003601f168201915b5050505050905090565b6000600460008373ffffffffffffffffffffffffffffffffffffffff1673ffffffffffffffffffffffffffffffffffffffff16815260200190815260200160002060000160009054906101000a900460ff169050919050565b6060600460008373ffffffffffffffffffffffffffffffffffffffff1673ffffffffffffffffffffffffffffffffffffffff1681526020019081526020016000206001018054600181600116156101000203166002900480601f016020809104026020016040519081016040528092919081815260200182805460018160011615610100020316600290048015610ca15780601f10610c7657610100808354040283529160200191610ca1565b820191906000526020600020905b815481529060010190602001808311610c8457829003601f168201915b50505050509050919050565b6000809054906101000a900473ffffffffffffffffffffffffffffffffffffffff1673ffffffffffffffffffffffffffffffffffffffff163373ffffffffffffffffffffffffffffffffffffffff16141515610d0857600080fd5b600060149054906101000a900460ff161515610d2357600080fd5b6000600380549050111515610d83576040517f08c379a00000000000000000000000000000000000000000000000000000000081526004018080602001828103825260268152602001806131a36026913960400191505060405180910390fd5b6000600380549050905060008090505b81811015610e78576000600382815481101515610dac57fe5b9060005260206000200160009054906101000a900473ffffffffffffffffffffffffffffffffffffffff1690506000600460008373ffffffffffffffffffffffffffffffffffffffff1673ffffffffffffffffffffffffffffffffffffffff16815260200190815260200160002060040160405180807f726577617264546f436c61696d00000000000000000000000000000000000000815250600d0190509081526020016040518091039020541115610e6a57610e69816128e2565b5b508080600101915050610d93565b507fa3352da71571a4ee5cbb1e86a8ee21cb920d7960c68f2769f5647000519fff7533600060405180806020018473ffffffffffffffffffffffffffffffffffffffff1673ffffffffffffffffffffffffffffffffffffffff168152602001838152602001828103825260188152602001807f656d657267656e6379436c61696d416c6c526577617264730000000000000000815250602001935050505060405180910390a150565b60003073ffffffffffffffffffffffffffffffffffffffff1631905090565b6000809054906101000a900473ffffffffffffffffffffffffffffffffffffffff1673ffffffffffffffffffffffffffffffffffffffff163373ffffffffffffffffffffffffffffffffffffffff16141515610f9b57600080fd5b600660405180807f6d6178696d756d42657400000000000000000000000000000000000000000000815250600a01905090815260200160405180910390205481101515611033576040517f08c379a000000000000000000000000000000000000000000000000000000000815260040180806020018281038252602381526020018061320c6023913960400191505060405180910390fd5b80600660405180807f6d696e696d756d42657400000000000000000000000000000000000000000000815250600a0190509081526020016040518091039020819055507fea6db58bafc47fdd26fae1c0699ddff82c76d9f1a0811f269dc46a1744d45ec48160405180806020018381526020018281038252600a8152602001807f6d696e696d756d426574000000000000000000000000000000000000000000008152506020019250505060405180910390a150565b6000600460003373ffffffffffffffffffffffffffffffffffffffff1673ffffffffffffffffffffffffffffffffffffffff16815260200190815260200160002060040160405180807f726577617264546f436c61696d00000000000000000000000000000000000000815250600d019050908152602001604051809103902054905090565b6000809054906101000a900473ffffffffffffffffffffffffffffffffffffffff1673ffffffffffffffffffffffffffffffffffffffff163373ffffffffffffffffffffffffffffffffffffffff161415156111ca57600080fd5b600060149054906101000a900460ff1615156111e557600080fd5b80600190805190602001906111fb9291906130c7565b507f5958d5ee4c18c03c9b7fbd08610f89275c1e8090fa241c3551f05baedd7a673c816040518080602001828103825283818151815260200191508051906020019080838360005b8381101561125e578082015181840152602081019050611243565b50505050905090810190601f16801561128b5780820380516001836020036101000a031916815260200191505b509250505060405180910390a150565b6000809054906101000a900473ffffffffffffffffffffffffffffffffffffffff1673ffffffffffffffffffffffffffffffffffffffff163373ffffffffffffffffffffffffffffffffffffffff161415156112f657600080fd5b600060149054906101000a900460ff1615151561131257600080fd5b6001600060146101000a81548160ff0219169083151502179055507f377bc036fc492cb51725b6253fae95152d1551ffda2ec80dc1acf2996293ee31600060149054906101000a900460ff16604051808060200183151515158152602001828103825260058152602001807f70617573650000000000000000000000000000000000000000000000000000008152506020019250505060405180910390a1565b6000806000600660405180807f6d696e696d756d42657400000000000000000000000000000000000000000000815250600a019050908152602001604051809103902054600660405180807f6d6178696d756d42657400000000000000000000000000000000000000000000815250600a019050908152602001604051809103902054600660405180807f6a61636b706f74466163746f7200000000000000000000000000000000000000815250600d019050908152602001604051809103902054925092509250909192565b60008060149054906101000a900460ff16905090565b6000809054906101000a900473ffffffffffffffffffffffffffffffffffffffff1673ffffffffffffffffffffffffffffffffffffffff163373ffffffffffffffffffffffffffffffffffffffff161415156114f057600080fd5b600660405180807f6d696e696d756d42657400000000000000000000000000000000000000000000815250600a01905090815260200160405180910390205481111515611588576040517f08c379a00000000000000000000000000000000000000000000000000000000081526004018080602001828103825260238152602001806132856023913960400191505060405180910390fd5b80600660405180807f6d6178696d756d42657400000000000000000000000000000000000000000000815250600a0190509081526020016040518091039020819055507fea6db58bafc47fdd26fae1c0699ddff82c76d9f1a0811f269dc46a1744d45ec48160405180806020018381526020018281038252600a8152602001807f6d6178696d756d426574000000000000000000000000000000000000000000008152506020019250505060405180910390a150565b611646612e18565b80600460003373ffffffffffffffffffffffffffffffffffffffff1673ffffffffffffffffffffffffffffffffffffffff168152602001908152602001600020600101908051906020019061169c9291906130c7565b507f1035157820495308e5c21c2a8e72a7cc906b05ab262ba89771fa4df2245fc6673382604051808373ffffffffffffffffffffffffffffffffffffffff1673ffffffffffffffffffffffffffffffffffffffff16815260200180602001828103825283818151815260200191508051906020019080838360005b83811015611732578082015181840152602081019050611717565b50505050905090810190601f16801561175f5780820380516001836020036101000a031916815260200191505b50935050505060405180910390a150565b600760405180807f696e697469616c697a6564000000000000000000000000000000000000000000815250600b019050908152602001604051809103902060009054906101000a900460ff16151561194d57806000806101000a81548173ffffffffffffffffffffffffffffffffffffffff021916908373ffffffffffffffffffffffffffffffffffffffff1602179055506001600760405180807f696e697469616c697a6564000000000000000000000000000000000000000000815250600b019050908152602001604051809103902060006101000a81548160ff02191690831515021790555060008060146101000a81548160ff02191690831515021790555066038d7ea4c68000600660405180807f6d696e696d756d42657400000000000000000000000000000000000000000000815250600a01905090815260200160405180910390208190555067016345785d8a0000600660405180807f6d6178696d756d42657400000000000000000000000000000000000000000000815250600a0190509081526020016040518091039020819055506003600660405180807f6a61636b706f74466163746f7200000000000000000000000000000000000000815250600d0190509081526020016040518091039020819055505b50565b343360006002600660405180807f746f74616c526577617264546f436c61696d0000000000000000000000000000815250601201905090815260200160405180910390205461199d610f21565b038115156119a757fe5b049050600660405180807f6d6178696d756d42657400000000000000000000000000000000000000000000815250600a0190509081526020016040518091039020548311151515611a60576040517f08c379a000000000000000000000000000000000000000000000000000000000815260040180806020018281038252600d8152602001807f626574203e206d6178696d756d0000000000000000000000000000000000000081525060200191505060405180910390fd5b600660405180807f6d696e696d756d42657400000000000000000000000000000000000000000000815250600a0190509081526020016040518091039020548310151515611b16576040517f08c379a000000000000000000000000000000000000000000000000000000000815260040180806020018281038252600d8152602001807f626574203c206d696e696d756d0000000000000000000000000000000000000081525060200191505060405180910390fd5b808311151515611b71576040517f08c379a000000000000000000000000000000000000000000000000000000000815260040180806020018281038252603381526020018061322f6033913960400191505060405180910390fd5b60001515600460008473ffffffffffffffffffffffffffffffffffffffff1673ffffffffffffffffffffffffffffffffffffffff16815260200190815260200160002060000160009054906101000a900460ff161515141515611c3c576040517f08c379a000000000000000000000000000000000000000000000000000000000815260040180806020018281038252601b8152602001807f757365722068617320616c7265616479206120626574206f70656e000000000081525060200191505060405180910390fd5b600060149054906101000a900460ff16151515611c5857600080fd5b611c60612e18565b611c68613147565b34816000018181525050600660405180807f6a61636b706f74466163746f7200000000000000000000000000000000000000815250600d0190509081526020016040518091039020548160200181815250506000600160028390806001815401808255809150509060018203906000526020600020906003020160009091929091909150600082015181600001556020820151816001015560408201518160020160006101000a81548160ff02191690831515021790555060608201518160020160016101000a81548160ff02191690831515021790555060808201518160020160026101000a81548160ff0219169083151502179055505050039050600460003373ffffffffffffffffffffffffffffffffffffffff1673ffffffffffffffffffffffffffffffffffffffff1681526020019081526020016000206003018190806001815401808255809150509060018203906000526020600020016000909192909190915055507feaa0c6e554f633424a32323f267460f3b212d47b9f1a8568898f6b6f16a525ca338234604051808473ffffffffffffffffffffffffffffffffffffffff1673ffffffffffffffffffffffffffffffffffffffff16815260200180602001848152602001838152602001828103825260218152602001806131eb6021913960400194505050505060405180910390a16000611e6a610a4d565b905060006001821490506000600284815481101515611e8557fe5b906000526020600020906003020160000154600285815481101515611ea657fe5b90600052602060002090600302016001015402905081156121ab576001600285815481101515611ed257fe5b906000526020600020906003020160020160006101000a81548160ff02191690831515021790555080600660405180807f746f74616c526577617264546f436c61696d0000000000000000000000000000815250601201905090815260200160405180910390206000828254019250508190555080600460003373ffffffffffffffffffffffffffffffffffffffff1673ffffffffffffffffffffffffffffffffffffffff16815260200190815260200160002060040160405180807f746f74616c576f6e000000000000000000000000000000000000000000000000815250600801905090815260200160405180910390206000828254019250508190555080600460003373ffffffffffffffffffffffffffffffffffffffff1673ffffffffffffffffffffffffffffffffffffffff16815260200190815260200160002060040160405180807f726577617264546f436c61696d00000000000000000000000000000000000000815250600d0190509081526020016040518091039020600082825401925050819055506000600460003373ffffffffffffffffffffffffffffffffffffffff1673ffffffffffffffffffffffffffffffffffffffff16815260200190815260200160002060020154141561213657600460003373ffffffffffffffffffffffffffffffffffffffff1673ffffffffffffffffffffffffffffffffffffffff16815260200190815260200160002060030180549050600460003373ffffffffffffffffffffffffffffffffffffffff1673ffffffffffffffffffffffffffffffffffffffff168152602001908152602001600020600201819055505b7f17532c7adbcd015b0a5706227b6aa6e9fbec5ce485d61bcd77c6a56b0096e8e6336001604051808373ffffffffffffffffffffffffffffffffffffffff1673ffffffffffffffffffffffffffffffffffffffff168152602001821515151581526020019250505060405180910390a1612255565b60016002858154811015156121bc57fe5b906000526020600020906003020160020160026101000a81548160ff0219169083151502179055507f17532c7adbcd015b0a5706227b6aa6e9fbec5ce485d61bcd77c6a56b0096e8e6336000604051808373ffffffffffffffffffffffffffffffffffffffff1673ffffffffffffffffffffffffffffffffffffffff168152602001821515151581526020019250505060405180910390a15b60028481548110151561226457fe5b906000526020600020906003020160000154600460003373ffffffffffffffffffffffffffffffffffffffff1673ffffffffffffffffffffffffffffffffffffffff16815260200190815260200160002060040160405180807f746f74616c4c6f737400000000000000000000000000000000000000000000008152506009019050908152602001604051809103902060008282540192505081905550600160028581548110151561231257fe5b906000526020600020906003020160020160016101000a81548160ff0219169083151502179055507ffc52ebec141ce4c4821663b5604e138f815298ea8fe66fbef521548db95d4bc03385604051808373ffffffffffffffffffffffffffffffffffffffff1673ffffffffffffffffffffffffffffffffffffffff16815260200180602001838152602001828103825260188152602001807f42657420636f6d706c6574656420616e6420636c6f7365640000000000000000815250602001935050505060405180910390a15050505050505050565b6000809054906101000a900473ffffffffffffffffffffffffffffffffffffffff1673ffffffffffffffffffffffffffffffffffffffff163373ffffffffffffffffffffffffffffffffffffffff1614151561244357600080fd5b6000341415151561245357600080fd5b7fa3352da71571a4ee5cbb1e86a8ee21cb920d7960c68f2769f5647000519fff75333460405180806020018473ffffffffffffffffffffffffffffffffffffffff1673ffffffffffffffffffffffffffffffffffffffff168152602001838152602001828103825260078152602001807f6465706f73697400000000000000000000000000000000000000000000000000815250602001935050505060405180910390a1565b60008060009054906101000a900473ffffffffffffffffffffffffffffffffffffffff16905090565b6000809054906101000a900473ffffffffffffffffffffffffffffffffffffffff1673ffffffffffffffffffffffffffffffffffffffff163373ffffffffffffffffffffffffffffffffffffffff1614151561257d57600080fd5b80600660405180807f6a61636b706f74466163746f7200000000000000000000000000000000000000815250600d0190509081526020016040518091039020819055507fea6db58bafc47fdd26fae1c0699ddff82c76d9f1a0811f269dc46a1744d45ec48160405180806020018381526020018281038252600d8152602001807f6a61636b706f74466163746f72000000000000000000000000000000000000008152506020019250505060405180910390a150565b6000809054906101000a900473ffffffffffffffffffffffffffffffffffffffff1673ffffffffffffffffffffffffffffffffffffffff163373ffffffffffffffffffffffffffffffffffffffff1614151561268e57600080fd5b600060149054906101000a900460ff1615156126a957600080fd5b6126ca3073ffffffffffffffffffffffffffffffffffffffff163133612f32565b7fa3352da71571a4ee5cbb1e86a8ee21cb920d7960c68f2769f5647000519fff75333073ffffffffffffffffffffffffffffffffffffffff163160405180806020018473ffffffffffffffffffffffffffffffffffffffff1673ffffffffffffffffffffffffffffffffffffffff168152602001838152602001828103825260148152602001807f656d657267656e63795769746864726177416c6c000000000000000000000000815250602001935050505060405180910390a1565b6000600660405180807f746f74616c526577617264546f436c61696d00000000000000000000000000008152506012019050908152602001604051809103902054905090565b6000809054906101000a900473ffffffffffffffffffffffffffffffffffffffff1673ffffffffffffffffffffffffffffffffffffffff163373ffffffffffffffffffffffffffffffffffffffff1614151561282857600080fd5b600060149054906101000a900460ff16151561284357600080fd5b60008060146101000a81548160ff0219169083151502179055507f377bc036fc492cb51725b6253fae95152d1551ffda2ec80dc1acf2996293ee31600060149054906101000a900460ff16604051808060200183151515158152602001828103825260058152602001807f70617573650000000000000000000000000000000000000000000000000000008152506020019250505060405180910390a1565b6000600280549050111515612942576040517f08c379a00000000000000000000000000000000000000000000000000000000081526004018080602001828103825260228152602001806131c96022913960400191505060405180910390fd5b6000600460008373ffffffffffffffffffffffffffffffffffffffff1673ffffffffffffffffffffffffffffffffffffffff168152602001908152602001600020600301805490501115156129e2576040517f08c379a00000000000000000000000000000000000000000000000000000000081526004018080602001828103825260238152602001806132626023913960400191505060405180910390fd5b600080905060008090506000600460008573ffffffffffffffffffffffffffffffffffffffff1673ffffffffffffffffffffffffffffffffffffffff168152602001908152602001600020600301805490509050600060016002805490500390506000600460008773ffffffffffffffffffffffffffffffffffffffff1673ffffffffffffffffffffffffffffffffffffffff168152602001908152602001600020600201541115612c12576001600460008773ffffffffffffffffffffffffffffffffffffffff1673ffffffffffffffffffffffffffffffffffffffff1681526020019081526020016000206002015403925060008390505b82811015612bc8576000600460008873ffffffffffffffffffffffffffffffffffffffff1673ffffffffffffffffffffffffffffffffffffffff16815260200190815260200160002060030182815481101515612b3557fe5b906000526020600020015490508281111515612bba57600281815481101515612b5a57fe5b906000526020600020906003020160020160029054906101000a900460ff161515612bb9576001600282815481101515612b9057fe5b906000526020600020906003020160020160026101000a81548160ff0219169083151502179055505b5b508080600101915050612adc565b506000600460008773ffffffffffffffffffffffffffffffffffffffff1673ffffffffffffffffffffffffffffffffffffffff168152602001908152602001600020600201819055505b600460008673ffffffffffffffffffffffffffffffffffffffff1673ffffffffffffffffffffffffffffffffffffffff16815260200190815260200160002060040160405180807f726577617264546f436c61696d00000000000000000000000000000000000000815250600d019050908152602001604051809103902054935083600660405180807f746f74616c526577617264546f436c61696d000000000000000000000000000081525060120190509081526020016040518091039020600082825403925050819055506000600460008773ffffffffffffffffffffffffffffffffffffffff1673ffffffffffffffffffffffffffffffffffffffff16815260200190815260200160002060040160405180807f726577617264546f436c61696d00000000000000000000000000000000000000815250600d0190509081526020016040518091039020819055507fa3352da71571a4ee5cbb1e86a8ee21cb920d7960c68f2769f5647000519fff75858560405180806020018473ffffffffffffffffffffffffffffffffffffffff1673ffffffffffffffffffffffffffffffffffffffff1681526020018381526020018281038252600c8152602001807f636c61696d526577617264730000000000000000000000000000000000000000815250602001935050505060405180910390a1612e118486612f32565b5050505050565b600460003373ffffffffffffffffffffffffffffffffffffffff1673ffffffffffffffffffffffffffffffffffffffff16815260200190815260200160002060000160019054906101000a900460ff161515612f305760033390806001815401808255809150509060018203906000526020600020016000909192909190916101000a81548173ffffffffffffffffffffffffffffffffffffffff021916908373ffffffffffffffffffffffffffffffffffffffff160217905550506001600460003373ffffffffffffffffffffffffffffffffffffffff1673ffffffffffffffffffffffffffffffffffffffff16815260200190815260200160002060000160016101000a81548160ff0219169083151502179055505b565b612f3a610f21565b8211151515612fb1576040517f08c379a000000000000000000000000000000000000000000000000000000000815260040180806020018281038252601c8152602001807f616d6f756e7420746f207769746864726177203e2062616c616e63650000000081525060200191505060405180910390fd5b6000819050600083612fc1610f21565b0390508173ffffffffffffffffffffffffffffffffffffffff166108fc859081150290604051600060405180830381858888f1935050505015801561300a573d6000803e3d6000fd5b5080613014610f21565b14151561301d57fe5b7fa3352da71571a4ee5cbb1e86a8ee21cb920d7960c68f2769f5647000519fff75838560405180806020018473ffffffffffffffffffffffffffffffffffffffff1673ffffffffffffffffffffffffffffffffffffffff168152602001838152602001828103825260088152602001807f7769746864726177000000000000000000000000000000000000000000000000815250602001935050505060405180910390a150505050565b828054600181600116156101000203166002900490600052602060002090601f016020900481019282601f1061310857805160ff1916838001178555613136565b82800160010185558215613136579182015b8281111561313557825182559160200191906001019061311a565b5b509050613143919061317d565b5090565b60a06040519081016040528060008152602001600081526020016000151581526020016000151581526020016000151581525090565b61319f91905b8082111561319b576000816000905550600101613183565b5090565b9056fe73697a65206f66205f6c6973744f664163636f756e7473206e6f7420636f6e73697374656e7473697a65206f66205f6c6973744f6642657473206e6f7420636f6e73697374656e744e6577206265742074616b656e203a20696e697469616c697a6174696f6e2e2e2e6d696e696d756d2073686f756c64206265206c657373207468616e206d6178696d756d62616c616e6365206e65656473206d6f72652066756e64732c20746f6f206d756368207265776172647320746f20636c61696d73697a65206f66205f6163636f756e7442657473206e6f7420636f6e73697374656e746d6178696d756d2073686f756c64206265206d6f7265207468616e206d696e696d756da165627a7a7230582052a3b06969f9b97f41057eca25505d3e3d3c803bf6c14e6511e22d0f22e58dc40029",
  "source": "pragma solidity 0.5.2;\r\n\r\nimport \"./CoinflipBase.sol\";\r\nimport \"./provableAPI.sol\";\r\n//import \"./SafeMath.sol\";\r\n\r\ncontract CoinflipMainV1 is CoinflipBase, usingProvable {\r\n\r\n  //----------------Variables\r\n\r\n  //----------------Modifiers\r\n\r\n  //----------------Event : ADDs TO MATCH FRONT-END FOR v3\r\n  event evtBetOpened(address _user, string _msg, uint256 _id, uint256 _amount);\r\n  event evtBetQuery(address _user, string _msg);\r\n  event evtBetResume(address _user, string  _msg, uint256 _randomResult);\r\n  event evtBetResult(address _user, bool _isWon);\r\n  event evtBetClosed(address _user, string _status, uint256 _id);//, uint256 _amount, uint256 _jackpot, bool _isWon);\r\n\r\n  //----------------Constructor\r\n  constructor() public {\r\n  }\r\n\r\n  //----------------Getters : ADDED TO MATCH FRONT-END FOR v3\r\n  function getUserPendingBetState(address _user) public view returns(bool){\r\n      return _Accounts[_user]._hasBetOpen;\r\n  }\r\n\r\n  //----------------Functions : main logic\r\n\r\n  //Main function => initialize a bet / no result => waiting for oracle\r\n  function flip() public payable isValidBet(msg.value, msg.sender) whenNotPaused {\r\n    //check if user is known\r\n    addAccount();\r\n    //INITIALIZATION of a new flip\r\n    Bet memory newBet;\r\n    newBet._amountBet = msg.value;\r\n    newBet._jackpotFactor = _uintStorage['jackpotFactor'];\r\n\r\n    uint256 betId = _listOfBets.push(newBet) - 1; // = _listOfBets.length - 1\r\n    _Accounts[msg.sender]._accountBets.push(betId);\r\n\r\n    emit evtBetOpened(msg.sender, \"New bet taken : initialization...\", betId, msg.value);\r\n\r\n    //RANDOMNUMBER\r\n    uint256 result = runPseudoRandom();\r\n    bool betIsWon = result == 1;\r\n\r\n    uint256 jackpot = _listOfBets[betId]._jackpotFactor * _listOfBets[betId]._amountBet;\r\n    //EVALUATION => set the new states\r\n    if(betIsWon) {\r\n      _listOfBets[betId]._isWin = true;\r\n      _uintStorage['totalRewardToClaim'] += jackpot;\r\n      _Accounts[msg.sender]._uintAccount['totalWon'] += jackpot;\r\n      _Accounts[msg.sender]._uintAccount['rewardToClaim'] += jackpot;\r\n\r\n      if (_Accounts[msg.sender]._firstBetToClaimId == 0) {\r\n        _Accounts[msg.sender]._firstBetToClaimId = _Accounts[msg.sender]._accountBets.length;   //not -1, 0 is flag\r\n      }\r\n      emit evtBetResult(msg.sender, true);\r\n    }\r\n    else {\r\n      _listOfBets[betId]._isClaimed = true;\r\n\r\n      emit evtBetResult(msg.sender, false);\r\n    }\r\n    _Accounts[msg.sender]._uintAccount['totalLost'] += _listOfBets[betId]._amountBet;\r\n\r\n    ////CLOSE THE BET\r\n    _listOfBets[betId]._isClosed = true;\r\n\r\n    emit evtBetClosed(msg.sender, \"Bet completed and closed\", betId);//, _listOfBets[betId]._amountBet, jackpot, _listOfBets[betId]._isWin);\r\n  }\r\n\r\n  //return the result : a random number : 0 or 1\r\n  //V1 =>pseudo randmoness (testing parity of now timestamp)\r\n  function runPseudoRandom() public view returns(uint256) {\r\n      uint256 time = now;\r\n      uint256 result = time % 2;\r\n\r\n      assert(result == 0 || result == 1);\r\n      return result;\r\n  }\r\n\r\n\r\n}\r\n",
  "sourcePath": "C:\\Xdev\\blockchain\\ethereumCourseAdvanced\\CoinflipDapp\\contracts\\CoinflipMainV1.sol",
  "compiler": {
    "name": "solc",
    "version": "0.5.2+commit.1df8f40c.Emscripten.clang"
  },
  "schemaVersion": "3.1.0",
  "updatedAt": "2020-05-22T21:08:47.328Z",
  "networkType": "ethereum",
  "devdoc": {
    "methods": {
      "__callback(bytes32,string)": {
        "details": "The following `__callback` functions are just placeholders ideally     meant to be defined in child contract when proofs are used.     The function bodies simply silence compiler warnings."
      }
    }
  },
  "userdoc": {
    "methods": {}
  }
}