{
  "contractName": "CoinflipProxy",
  "abi": [
    {
      "inputs": [
        {
          "name": "_currentAddress",
          "type": "address"
        }
      ],
      "payable": false,
      "stateMutability": "nonpayable",
      "type": "constructor"
    },
    {
      "payable": true,
      "stateMutability": "payable",
      "type": "fallback"
    },
    {
      "constant": false,
      "inputs": [
        {
          "name": "_newAddress",
          "type": "address"
        }
      ],
      "name": "upgrade",
      "outputs": [],
      "payable": false,
      "stateMutability": "nonpayable",
      "type": "function"
    }
  ],
  "bytecode": "0x608060405234801561001057600080fd5b506040516020806102de8339810180604052602081101561003057600080fd5b810190808051906020019092919050505080600860006101000a81548173ffffffffffffffffffffffffffffffffffffffff021916908373ffffffffffffffffffffffffffffffffffffffff1602179055505061024c806100926000396000f3fe60806040526004361061003b576000357c0100000000000000000000000000000000000000000000000000000000900480630900f01014610130575b6000600860009054906101000a900473ffffffffffffffffffffffffffffffffffffffff169050600073ffffffffffffffffffffffffffffffffffffffff16600860009054906101000a900473ffffffffffffffffffffffffffffffffffffffff1673ffffffffffffffffffffffffffffffffffffffff16141515156100c057600080fd5b60606000368080601f016020809104026020016040519081016040528093929190818152602001838380828437600081840152601f19601f820116905080830192505050505050509050600080825160208401855af43d604051816000823e826000811461012c578282f35b8282fd5b34801561013c57600080fd5b5061017f6004803603602081101561015357600080fd5b81019080803573ffffffffffffffffffffffffffffffffffffffff169060200190929190505050610181565b005b6000809054906101000a900473ffffffffffffffffffffffffffffffffffffffff1673ffffffffffffffffffffffffffffffffffffffff163373ffffffffffffffffffffffffffffffffffffffff161415156101dc57600080fd5b80600860006101000a81548173ffffffffffffffffffffffffffffffffffffffff021916908373ffffffffffffffffffffffffffffffffffffffff1602179055505056fea165627a7a723058203d8868946107a553fda2f65a6d3091af51a78714c348bbb12201270eeebce0170029",
  "source": "pragma solidity 0.5.2;\r\n\r\n//import \"./CoinflipOwnable.sol\";\r\n//import \"./CoinflipPausable.sol\";\r\nimport \"./CoinflipStorage.sol\";\r\n\r\n//Proxy is the persistent connection between users and the Coinflip's logic\r\n//and persistent storage => It shouldn't be modified\r\ncontract CoinflipProxy is CoinflipStorage {\r\n\r\n  //----------------Variables\r\n  //address of the main contract => remove to storage\r\n  address _currentAddressOfLogic;\r\n\r\n  //----------------Constructor\r\n  //set the address of the logic contract when proxy is launched\r\n  // constructor(address _currentAddress) public onlyOwner{\r\n  //   currentAddress = _currentAddress;\r\n  // }\r\n  constructor(address _currentAddress) public {\r\n    _currentAddressOfLogic = _currentAddress;\r\n  }\r\n\r\n\r\n  //----------------Functions : upgrade the logic\r\n  //upgrade the address of the main contract at deployment :\r\n  //allows to upgrade functionnality and to fix bugs\r\n  function upgrade(address _newAddress) public onlyOwner {\r\n    _currentAddressOfLogic = _newAddress;\r\n  }\r\n\r\n  //----------------Functions : fallback function (= default function):\r\n  //triggered when we call a function that is not there\r\n  //context of the function called will be proxy context and its storage parent\r\n  function() payable external{\r\n    //REDIRECTION TO CURRENTADDRESS\r\n    address implementation = _currentAddressOfLogic;\r\n    require(_currentAddressOfLogic != address(0));\r\n    bytes memory data = msg.data;\r\n\r\n    //ASSEMBLEUR : this code give a pointer to the contract function\r\n    //if operation failed (result = 0) => revert\r\n    assembly {\r\n      let result := delegatecall(gas, implementation, add(data, 0x20), mload(data),0,0)\r\n      //taille du dernier return data\r\n      let size := returndatasize\r\n      //alloue le tableau de bytes de sortie\r\n      let ptr := mload(0x40)\r\n      returndatacopy(ptr, 0, size)\r\n      switch result\r\n      case 0 {revert(ptr, size)}\r\n      default {return(ptr, size)}\r\n    }\r\n  }\r\n}\r\n",
  "sourcePath": "C:\\Xdev\\blockchain\\ethereumCourseAdvanced\\CoinflipDapp\\contracts\\CoinflipProxy.sol",
  "compiler": {
    "name": "solc",
    "version": "0.5.2+commit.1df8f40c.Emscripten.clang"
  },
  "schemaVersion": "3.1.0",
  "updatedAt": "2020-05-22T21:08:47.314Z",
  "networkType": "ethereum",
  "devdoc": {
    "methods": {}
  },
  "userdoc": {
    "methods": {}
  }
}