{
  "contractName": "CoinflipBase",
  "abi": [
    {
      "inputs": [],
      "payable": false,
      "stateMutability": "nonpayable",
      "type": "constructor"
    },
    {
      "anonymous": false,
      "inputs": [
        {
          "indexed": false,
          "name": "_user",
          "type": "address"
        },
        {
          "indexed": false,
          "name": "_name",
          "type": "string"
        }
      ],
      "name": "evtNameSet",
      "type": "event"
    },
    {
      "anonymous": false,
      "inputs": [
        {
          "indexed": false,
          "name": "_param",
          "type": "string"
        },
        {
          "indexed": false,
          "name": "_value",
          "type": "uint256"
        }
      ],
      "name": "evtSettingsUpdated",
      "type": "event"
    },
    {
      "anonymous": false,
      "inputs": [
        {
          "indexed": false,
          "name": "_param",
          "type": "string"
        },
        {
          "indexed": false,
          "name": "_value",
          "type": "bool"
        }
      ],
      "name": "evtPauseSet",
      "type": "event"
    },
    {
      "anonymous": false,
      "inputs": [
        {
          "indexed": false,
          "name": "_type",
          "type": "string"
        },
        {
          "indexed": false,
          "name": "_origin",
          "type": "address"
        },
        {
          "indexed": false,
          "name": "_newValue",
          "type": "uint256"
        }
      ],
      "name": "evtFundingOperation",
      "type": "event"
    },
    {
      "anonymous": false,
      "inputs": [
        {
          "indexed": false,
          "name": "_msg",
          "type": "string"
        }
      ],
      "name": "evtMsgToChain",
      "type": "event"
    },
    {
      "constant": false,
      "inputs": [
        {
          "name": "_firstOne",
          "type": "address"
        }
      ],
      "name": "initialize",
      "outputs": [],
      "payable": false,
      "stateMutability": "nonpayable",
      "type": "function"
    },
    {
      "constant": true,
      "inputs": [],
      "name": "getContractBalance",
      "outputs": [
        {
          "name": "",
          "type": "uint256"
        }
      ],
      "payable": false,
      "stateMutability": "view",
      "type": "function"
    },
    {
      "constant": true,
      "inputs": [],
      "name": "getTotalRewardToClaim",
      "outputs": [
        {
          "name": "",
          "type": "uint256"
        }
      ],
      "payable": false,
      "stateMutability": "view",
      "type": "function"
    },
    {
      "constant": true,
      "inputs": [],
      "name": "getTotalReward",
      "outputs": [
        {
          "name": "",
          "type": "uint256"
        }
      ],
      "payable": false,
      "stateMutability": "view",
      "type": "function"
    },
    {
      "constant": true,
      "inputs": [],
      "name": "getSettings",
      "outputs": [
        {
          "name": "min",
          "type": "uint256"
        },
        {
          "name": "max",
          "type": "uint256"
        },
        {
          "name": "fact",
          "type": "uint256"
        }
      ],
      "payable": false,
      "stateMutability": "view",
      "type": "function"
    },
    {
      "constant": true,
      "inputs": [
        {
          "name": "_user",
          "type": "address"
        }
      ],
      "name": "getName",
      "outputs": [
        {
          "name": "",
          "type": "string"
        }
      ],
      "payable": false,
      "stateMutability": "view",
      "type": "function"
    },
    {
      "constant": true,
      "inputs": [],
      "name": "getPauseState",
      "outputs": [
        {
          "name": "",
          "type": "bool"
        }
      ],
      "payable": false,
      "stateMutability": "view",
      "type": "function"
    },
    {
      "constant": true,
      "inputs": [],
      "name": "getOwnerAdd",
      "outputs": [
        {
          "name": "",
          "type": "address"
        }
      ],
      "payable": false,
      "stateMutability": "view",
      "type": "function"
    },
    {
      "constant": true,
      "inputs": [],
      "name": "getMsgToChain",
      "outputs": [
        {
          "name": "",
          "type": "string"
        }
      ],
      "payable": false,
      "stateMutability": "view",
      "type": "function"
    },
    {
      "constant": false,
      "inputs": [],
      "name": "pause",
      "outputs": [],
      "payable": false,
      "stateMutability": "nonpayable",
      "type": "function"
    },
    {
      "constant": false,
      "inputs": [],
      "name": "unPause",
      "outputs": [],
      "payable": false,
      "stateMutability": "nonpayable",
      "type": "function"
    },
    {
      "constant": false,
      "inputs": [
        {
          "name": "_n",
          "type": "string"
        }
      ],
      "name": "setName",
      "outputs": [],
      "payable": false,
      "stateMutability": "nonpayable",
      "type": "function"
    },
    {
      "constant": false,
      "inputs": [
        {
          "name": "_newMinimum",
          "type": "uint256"
        }
      ],
      "name": "updateMinimumBet",
      "outputs": [],
      "payable": false,
      "stateMutability": "nonpayable",
      "type": "function"
    },
    {
      "constant": false,
      "inputs": [
        {
          "name": "_newMaximum",
          "type": "uint256"
        }
      ],
      "name": "updateMaximumBet",
      "outputs": [],
      "payable": false,
      "stateMutability": "nonpayable",
      "type": "function"
    },
    {
      "constant": false,
      "inputs": [
        {
          "name": "_newFactor",
          "type": "uint256"
        }
      ],
      "name": "updateJackpotFactor",
      "outputs": [],
      "payable": false,
      "stateMutability": "nonpayable",
      "type": "function"
    },
    {
      "constant": false,
      "inputs": [
        {
          "name": "_msg",
          "type": "string"
        }
      ],
      "name": "setMsgToChain",
      "outputs": [],
      "payable": false,
      "stateMutability": "nonpayable",
      "type": "function"
    },
    {
      "constant": false,
      "inputs": [],
      "name": "deposit",
      "outputs": [],
      "payable": true,
      "stateMutability": "payable",
      "type": "function"
    },
    {
      "constant": false,
      "inputs": [],
      "name": "emergencyWithdrawAll",
      "outputs": [],
      "payable": false,
      "stateMutability": "nonpayable",
      "type": "function"
    },
    {
      "constant": false,
      "inputs": [],
      "name": "emergencyClaimAllRewards",
      "outputs": [],
      "payable": false,
      "stateMutability": "nonpayable",
      "type": "function"
    },
    {
      "constant": false,
      "inputs": [],
      "name": "claimRewards",
      "outputs": [],
      "payable": false,
      "stateMutability": "nonpayable",
      "type": "function"
    }
  ],
  "bytecode": "0x608060405234801561001057600080fd5b506100293361002e640100000000026401000000009004565b61020e565b600760405180807f696e697469616c697a6564000000000000000000000000000000000000000000815250600b019050908152602001604051809103902060009054906101000a900460ff16151561020b57806000806101000a81548173ffffffffffffffffffffffffffffffffffffffff021916908373ffffffffffffffffffffffffffffffffffffffff1602179055506001600760405180807f696e697469616c697a6564000000000000000000000000000000000000000000815250600b019050908152602001604051809103902060006101000a81548160ff02191690831515021790555060008060146101000a81548160ff02191690831515021790555066038d7ea4c68000600660405180807f6d696e696d756d42657400000000000000000000000000000000000000000000815250600a01905090815260200160405180910390208190555067016345785d8a0000600660405180807f6d6178696d756d42657400000000000000000000000000000000000000000000815250600a0190509081526020016040518091039020819055506003600660405180807f6a61636b706f74466163746f7200000000000000000000000000000000000000815250600d0190509081526020016040518091039020819055505b50565b61239b8061021d6000396000f3fe60806040526004361061013c576000357c0100000000000000000000000000000000000000000000000000000000900480639a44f1fb116100bd578063d66d2a5711610081578063d66d2a57146105ff578063d919124314610656578063dd19171914610691578063f39c9b00146106a8578063f7b188a5146106d35761013c565b80639a44f1fb14610472578063c15174a1146104a1578063c47f0027146104dc578063c4d66de8146105a4578063d0e30db0146105f55761013c565b80637a6b4500116101045780637a6b4500146102f45780637d1fcbfa1461032f57806380a3e99b1461035a5780638456cb591461042257806385b4bb53146104395761013c565b8063372500ab1461014157806353274745146101585780635fd4b08a146101e85780636b797762146102b25780636f9fb98a146102c9575b600080fd5b34801561014d57600080fd5b506101566106ea565b005b34801561016457600080fd5b5061016d610711565b6040518080602001828103825283818151815260200191508051906020019080838360005b838110156101ad578082015181840152602081019050610192565b50505050905090810190601f1680156101da5780820380516001836020036101000a031916815260200191505b509250505060405180910390f35b3480156101f457600080fd5b506102376004803603602081101561020b57600080fd5b81019080803573ffffffffffffffffffffffffffffffffffffffff1690602001909291905050506107b3565b6040518080602001828103825283818151815260200191508051906020019080838360005b8381101561027757808201518184015260208101905061025c565b50505050905090810190601f1680156102a45780820380516001836020036101000a031916815260200191505b509250505060405180910390f35b3480156102be57600080fd5b506102c7610897565b005b3480156102d557600080fd5b506102de610b0b565b6040518082815260200191505060405180910390f35b34801561030057600080fd5b5061032d6004803603602081101561031757600080fd5b8101908080359060200190929190505050610b2a565b005b34801561033b57600080fd5b50610344610cd3565b6040518082815260200191505060405180910390f35b34801561036657600080fd5b506104206004803603602081101561037d57600080fd5b810190808035906020019064010000000081111561039a57600080fd5b8201836020820111156103ac57600080fd5b803590602001918460018302840111640100000000831117156103ce57600080fd5b91908080601f016020809104026020016040519081016040528093929190818152602001838380828437600081840152601f19601f820116905080830192505050505050509192919290505050610d59565b005b34801561042e57600080fd5b50610437610e85565b005b34801561044557600080fd5b5061044e610f9c565b60405180848152602001838152602001828152602001935050505060405180910390f35b34801561047e57600080fd5b50610487611069565b604051808215151515815260200191505060405180910390f35b3480156104ad57600080fd5b506104da600480360360208110156104c457600080fd5b810190808035906020019092919050505061107f565b005b3480156104e857600080fd5b506105a2600480360360208110156104ff57600080fd5b810190808035906020019064010000000081111561051c57600080fd5b82018360208201111561052e57600080fd5b8035906020019184600183028401116401000000008311171561055057600080fd5b91908080601f016020809104026020016040519081016040528093929190818152602001838380828437600081840152601f19601f820116905080830192505050505050509192919290505050611228565b005b3480156105b057600080fd5b506105f3600480360360208110156105c757600080fd5b81019080803573ffffffffffffffffffffffffffffffffffffffff16906020019092919050505061135a565b005b6105fd61153a565b005b34801561060b57600080fd5b5061061461164b565b604051808273ffffffffffffffffffffffffffffffffffffffff1673ffffffffffffffffffffffffffffffffffffffff16815260200191505060405180910390f35b34801561066257600080fd5b5061068f6004803603602081101561067957600080fd5b8101908080359060200190929190505050611674565b005b34801561069d57600080fd5b506106a6611785565b005b3480156106b457600080fd5b506106bd6118d9565b6040518082815260200191505060405180910390f35b3480156106df57600080fd5b506106e861191f565b005b600060149054906101000a900460ff1615151561070657600080fd5b61070f33611a34565b565b606060018054600181600116156101000203166002900480601f0160208091040260200160405190810160405280929190818152602001828054600181600116156101000203166002900480156107a95780601f1061077e576101008083540402835291602001916107a9565b820191906000526020600020905b81548152906001019060200180831161078c57829003601f168201915b5050505050905090565b6060600460008373ffffffffffffffffffffffffffffffffffffffff1673ffffffffffffffffffffffffffffffffffffffff1681526020019081526020016000206001018054600181600116156101000203166002900480601f01602080910402602001604051908101604052809291908181526020018280546001816001161561010002031660029004801561088b5780601f106108605761010080835404028352916020019161088b565b820191906000526020600020905b81548152906001019060200180831161086e57829003601f168201915b50505050509050919050565b6000809054906101000a900473ffffffffffffffffffffffffffffffffffffffff1673ffffffffffffffffffffffffffffffffffffffff163373ffffffffffffffffffffffffffffffffffffffff161415156108f257600080fd5b600060149054906101000a900460ff16151561090d57600080fd5b600060038054905011151561096d576040517f08c379a00000000000000000000000000000000000000000000000000000000081526004018080602001828103825260268152602001806122bf6026913960400191505060405180910390fd5b6000600380549050905060008090505b81811015610a6257600060038281548110151561099657fe5b9060005260206000200160009054906101000a900473ffffffffffffffffffffffffffffffffffffffff1690506000600460008373ffffffffffffffffffffffffffffffffffffffff1673ffffffffffffffffffffffffffffffffffffffff16815260200190815260200160002060040160405180807f726577617264546f436c61696d00000000000000000000000000000000000000815250600d0190509081526020016040518091039020541115610a5457610a5381611a34565b5b50808060010191505061097d565b507fa3352da71571a4ee5cbb1e86a8ee21cb920d7960c68f2769f5647000519fff7533600060405180806020018473ffffffffffffffffffffffffffffffffffffffff1673ffffffffffffffffffffffffffffffffffffffff168152602001838152602001828103825260188152602001807f656d657267656e6379436c61696d416c6c526577617264730000000000000000815250602001935050505060405180910390a150565b60003073ffffffffffffffffffffffffffffffffffffffff1631905090565b6000809054906101000a900473ffffffffffffffffffffffffffffffffffffffff1673ffffffffffffffffffffffffffffffffffffffff163373ffffffffffffffffffffffffffffffffffffffff16141515610b8557600080fd5b600660405180807f6d6178696d756d42657400000000000000000000000000000000000000000000815250600a01905090815260200160405180910390205481101515610c1d576040517f08c379a00000000000000000000000000000000000000000000000000000000081526004018080602001828103825260238152602001806123076023913960400191505060405180910390fd5b80600660405180807f6d696e696d756d42657400000000000000000000000000000000000000000000815250600a0190509081526020016040518091039020819055507fea6db58bafc47fdd26fae1c0699ddff82c76d9f1a0811f269dc46a1744d45ec48160405180806020018381526020018281038252600a8152602001807f6d696e696d756d426574000000000000000000000000000000000000000000008152506020019250505060405180910390a150565b6000600460003373ffffffffffffffffffffffffffffffffffffffff1673ffffffffffffffffffffffffffffffffffffffff16815260200190815260200160002060040160405180807f726577617264546f436c61696d00000000000000000000000000000000000000815250600d019050908152602001604051809103902054905090565b6000809054906101000a900473ffffffffffffffffffffffffffffffffffffffff1673ffffffffffffffffffffffffffffffffffffffff163373ffffffffffffffffffffffffffffffffffffffff16141515610db457600080fd5b600060149054906101000a900460ff161515610dcf57600080fd5b8060019080519060200190610de5929190612219565b507f5958d5ee4c18c03c9b7fbd08610f89275c1e8090fa241c3551f05baedd7a673c816040518080602001828103825283818151815260200191508051906020019080838360005b83811015610e48578082015181840152602081019050610e2d565b50505050905090810190601f168015610e755780820380516001836020036101000a031916815260200191505b509250505060405180910390a150565b6000809054906101000a900473ffffffffffffffffffffffffffffffffffffffff1673ffffffffffffffffffffffffffffffffffffffff163373ffffffffffffffffffffffffffffffffffffffff16141515610ee057600080fd5b600060149054906101000a900460ff16151515610efc57600080fd5b6001600060146101000a81548160ff0219169083151502179055507f377bc036fc492cb51725b6253fae95152d1551ffda2ec80dc1acf2996293ee31600060149054906101000a900460ff16604051808060200183151515158152602001828103825260058152602001807f70617573650000000000000000000000000000000000000000000000000000008152506020019250505060405180910390a1565b6000806000600660405180807f6d696e696d756d42657400000000000000000000000000000000000000000000815250600a019050908152602001604051809103902054600660405180807f6d6178696d756d42657400000000000000000000000000000000000000000000815250600a019050908152602001604051809103902054600660405180807f6a61636b706f74466163746f7200000000000000000000000000000000000000815250600d019050908152602001604051809103902054925092509250909192565b60008060149054906101000a900460ff16905090565b6000809054906101000a900473ffffffffffffffffffffffffffffffffffffffff1673ffffffffffffffffffffffffffffffffffffffff163373ffffffffffffffffffffffffffffffffffffffff161415156110da57600080fd5b600660405180807f6d696e696d756d42657400000000000000000000000000000000000000000000815250600a01905090815260200160405180910390205481111515611172576040517f08c379a000000000000000000000000000000000000000000000000000000000815260040180806020018281038252602381526020018061234d6023913960400191505060405180910390fd5b80600660405180807f6d6178696d756d42657400000000000000000000000000000000000000000000815250600a0190509081526020016040518091039020819055507fea6db58bafc47fdd26fae1c0699ddff82c76d9f1a0811f269dc46a1744d45ec48160405180806020018381526020018281038252600a8152602001807f6d6178696d756d426574000000000000000000000000000000000000000000008152506020019250505060405180910390a150565b611230611f6a565b80600460003373ffffffffffffffffffffffffffffffffffffffff1673ffffffffffffffffffffffffffffffffffffffff1681526020019081526020016000206001019080519060200190611286929190612219565b507f1035157820495308e5c21c2a8e72a7cc906b05ab262ba89771fa4df2245fc6673382604051808373ffffffffffffffffffffffffffffffffffffffff1673ffffffffffffffffffffffffffffffffffffffff16815260200180602001828103825283818151815260200191508051906020019080838360005b8381101561131c578082015181840152602081019050611301565b50505050905090810190601f1680156113495780820380516001836020036101000a031916815260200191505b50935050505060405180910390a150565b600760405180807f696e697469616c697a6564000000000000000000000000000000000000000000815250600b019050908152602001604051809103902060009054906101000a900460ff16151561153757806000806101000a81548173ffffffffffffffffffffffffffffffffffffffff021916908373ffffffffffffffffffffffffffffffffffffffff1602179055506001600760405180807f696e697469616c697a6564000000000000000000000000000000000000000000815250600b019050908152602001604051809103902060006101000a81548160ff02191690831515021790555060008060146101000a81548160ff02191690831515021790555066038d7ea4c68000600660405180807f6d696e696d756d42657400000000000000000000000000000000000000000000815250600a01905090815260200160405180910390208190555067016345785d8a0000600660405180807f6d6178696d756d42657400000000000000000000000000000000000000000000815250600a0190509081526020016040518091039020819055506003600660405180807f6a61636b706f74466163746f7200000000000000000000000000000000000000815250600d0190509081526020016040518091039020819055505b50565b6000809054906101000a900473ffffffffffffffffffffffffffffffffffffffff1673ffffffffffffffffffffffffffffffffffffffff163373ffffffffffffffffffffffffffffffffffffffff1614151561159557600080fd5b600034141515156115a557600080fd5b7fa3352da71571a4ee5cbb1e86a8ee21cb920d7960c68f2769f5647000519fff75333460405180806020018473ffffffffffffffffffffffffffffffffffffffff1673ffffffffffffffffffffffffffffffffffffffff168152602001838152602001828103825260078152602001807f6465706f73697400000000000000000000000000000000000000000000000000815250602001935050505060405180910390a1565b60008060009054906101000a900473ffffffffffffffffffffffffffffffffffffffff16905090565b6000809054906101000a900473ffffffffffffffffffffffffffffffffffffffff1673ffffffffffffffffffffffffffffffffffffffff163373ffffffffffffffffffffffffffffffffffffffff161415156116cf57600080fd5b80600660405180807f6a61636b706f74466163746f7200000000000000000000000000000000000000815250600d0190509081526020016040518091039020819055507fea6db58bafc47fdd26fae1c0699ddff82c76d9f1a0811f269dc46a1744d45ec48160405180806020018381526020018281038252600d8152602001807f6a61636b706f74466163746f72000000000000000000000000000000000000008152506020019250505060405180910390a150565b6000809054906101000a900473ffffffffffffffffffffffffffffffffffffffff1673ffffffffffffffffffffffffffffffffffffffff163373ffffffffffffffffffffffffffffffffffffffff161415156117e057600080fd5b600060149054906101000a900460ff1615156117fb57600080fd5b61181c3073ffffffffffffffffffffffffffffffffffffffff163133612084565b7fa3352da71571a4ee5cbb1e86a8ee21cb920d7960c68f2769f5647000519fff75333073ffffffffffffffffffffffffffffffffffffffff163160405180806020018473ffffffffffffffffffffffffffffffffffffffff1673ffffffffffffffffffffffffffffffffffffffff168152602001838152602001828103825260148152602001807f656d657267656e63795769746864726177416c6c000000000000000000000000815250602001935050505060405180910390a1565b6000600660405180807f746f74616c526577617264546f436c61696d00000000000000000000000000008152506012019050908152602001604051809103902054905090565b6000809054906101000a900473ffffffffffffffffffffffffffffffffffffffff1673ffffffffffffffffffffffffffffffffffffffff163373ffffffffffffffffffffffffffffffffffffffff1614151561197a57600080fd5b600060149054906101000a900460ff16151561199557600080fd5b60008060146101000a81548160ff0219169083151502179055507f377bc036fc492cb51725b6253fae95152d1551ffda2ec80dc1acf2996293ee31600060149054906101000a900460ff16604051808060200183151515158152602001828103825260058152602001807f70617573650000000000000000000000000000000000000000000000000000008152506020019250505060405180910390a1565b6000600280549050111515611a94576040517f08c379a00000000000000000000000000000000000000000000000000000000081526004018080602001828103825260228152602001806122e56022913960400191505060405180910390fd5b6000600460008373ffffffffffffffffffffffffffffffffffffffff1673ffffffffffffffffffffffffffffffffffffffff16815260200190815260200160002060030180549050111515611b34576040517f08c379a000000000000000000000000000000000000000000000000000000000815260040180806020018281038252602381526020018061232a6023913960400191505060405180910390fd5b600080905060008090506000600460008573ffffffffffffffffffffffffffffffffffffffff1673ffffffffffffffffffffffffffffffffffffffff168152602001908152602001600020600301805490509050600060016002805490500390506000600460008773ffffffffffffffffffffffffffffffffffffffff1673ffffffffffffffffffffffffffffffffffffffff168152602001908152602001600020600201541115611d64576001600460008773ffffffffffffffffffffffffffffffffffffffff1673ffffffffffffffffffffffffffffffffffffffff1681526020019081526020016000206002015403925060008390505b82811015611d1a576000600460008873ffffffffffffffffffffffffffffffffffffffff1673ffffffffffffffffffffffffffffffffffffffff16815260200190815260200160002060030182815481101515611c8757fe5b906000526020600020015490508281111515611d0c57600281815481101515611cac57fe5b906000526020600020906003020160020160029054906101000a900460ff161515611d0b576001600282815481101515611ce257fe5b906000526020600020906003020160020160026101000a81548160ff0219169083151502179055505b5b508080600101915050611c2e565b506000600460008773ffffffffffffffffffffffffffffffffffffffff1673ffffffffffffffffffffffffffffffffffffffff168152602001908152602001600020600201819055505b600460008673ffffffffffffffffffffffffffffffffffffffff1673ffffffffffffffffffffffffffffffffffffffff16815260200190815260200160002060040160405180807f726577617264546f436c61696d00000000000000000000000000000000000000815250600d019050908152602001604051809103902054935083600660405180807f746f74616c526577617264546f436c61696d000000000000000000000000000081525060120190509081526020016040518091039020600082825403925050819055506000600460008773ffffffffffffffffffffffffffffffffffffffff1673ffffffffffffffffffffffffffffffffffffffff16815260200190815260200160002060040160405180807f726577617264546f436c61696d00000000000000000000000000000000000000815250600d0190509081526020016040518091039020819055507fa3352da71571a4ee5cbb1e86a8ee21cb920d7960c68f2769f5647000519fff75858560405180806020018473ffffffffffffffffffffffffffffffffffffffff1673ffffffffffffffffffffffffffffffffffffffff1681526020018381526020018281038252600c8152602001807f636c61696d526577617264730000000000000000000000000000000000000000815250602001935050505060405180910390a1611f638486612084565b5050505050565b600460003373ffffffffffffffffffffffffffffffffffffffff1673ffffffffffffffffffffffffffffffffffffffff16815260200190815260200160002060000160019054906101000a900460ff1615156120825760033390806001815401808255809150509060018203906000526020600020016000909192909190916101000a81548173ffffffffffffffffffffffffffffffffffffffff021916908373ffffffffffffffffffffffffffffffffffffffff160217905550506001600460003373ffffffffffffffffffffffffffffffffffffffff1673ffffffffffffffffffffffffffffffffffffffff16815260200190815260200160002060000160016101000a81548160ff0219169083151502179055505b565b61208c610b0b565b8211151515612103576040517f08c379a000000000000000000000000000000000000000000000000000000000815260040180806020018281038252601c8152602001807f616d6f756e7420746f207769746864726177203e2062616c616e63650000000081525060200191505060405180910390fd5b6000819050600083612113610b0b565b0390508173ffffffffffffffffffffffffffffffffffffffff166108fc859081150290604051600060405180830381858888f1935050505015801561215c573d6000803e3d6000fd5b5080612166610b0b565b14151561216f57fe5b7fa3352da71571a4ee5cbb1e86a8ee21cb920d7960c68f2769f5647000519fff75838560405180806020018473ffffffffffffffffffffffffffffffffffffffff1673ffffffffffffffffffffffffffffffffffffffff168152602001838152602001828103825260088152602001807f7769746864726177000000000000000000000000000000000000000000000000815250602001935050505060405180910390a150505050565b828054600181600116156101000203166002900490600052602060002090601f016020900481019282601f1061225a57805160ff1916838001178555612288565b82800160010185558215612288579182015b8281111561228757825182559160200191906001019061226c565b5b5090506122959190612299565b5090565b6122bb91905b808211156122b757600081600090555060010161229f565b5090565b9056fe73697a65206f66205f6c6973744f664163636f756e7473206e6f7420636f6e73697374656e7473697a65206f66205f6c6973744f6642657473206e6f7420636f6e73697374656e746d696e696d756d2073686f756c64206265206c657373207468616e206d6178696d756d73697a65206f66205f6163636f756e7442657473206e6f7420636f6e73697374656e746d6178696d756d2073686f756c64206265206d6f7265207468616e206d696e696d756da165627a7a72305820c5a3219990db488c25ddbd5d9c950a065d37ffa03cc6664cee188f1be1abac300029",
  "source": "pragma solidity 0.5.2;\r\n\r\nimport \"./CoinflipStorage.sol\";\r\n\r\n//MEMO\r\n//events permettent aussi de dboguer les instructions dans fonctions en development\r\n\r\n//basic functions of the contract, child of storage to know the variable and allow access\r\ncontract CoinflipBase is CoinflipStorage {\r\n\r\n  //----------------Modifiers\r\n  //check if minimumBet <= bet <= maximumBet & available balance (balance - rewards to claim)\r\n  //check if no bet is already open for user\r\n  modifier isValidBet(uint256 _amount, address _user) {\r\n      uint256 maxJackpot = (getContractBalance() - _uintStorage['totalRewardToClaim']) / 2;//address(this).balance / 2;\r\n      require(_amount <= _uintStorage['maximumBet'], \"bet > maximum\");\r\n      require(_amount >= _uintStorage['minimumBet'], \"bet < minimum\");\r\n      require(_amount <= maxJackpot, \"balance needs more funds, too much rewards to claim\");\r\n      require(_Accounts[_user]._hasBetOpen == false, \"user has already a bet open\");\r\n      _;\r\n  }\r\n\r\n  //----------------Event\r\n  //  event funded(address user, uint amount);\r\n  event evtNameSet(address _user, string _name);\r\n  //value of param : minimumBet, maximumBet, jackpotFator\r\n  event evtSettingsUpdated(string _param, uint256 _value);\r\n  event evtPauseSet(string _param, bool _value);\r\n  //value of type : deposit, emergencyWithdrawAll, emergencyClaimAllRewards,\r\n  //claimRewards, withdrawReward, withdraw\r\n  event evtFundingOperation(string _type, address _origin, uint256 _newValue);\r\n  event evtMsgToChain(string _msg);\r\n\r\n\r\n  //----------------Constructor\r\n  constructor() public {\r\n    initialize(msg.sender);\r\n  }\r\n\r\n  //----------------Init\r\n  function initialize(address _firstOne) public{\r\n    //require(!_boolStorage['initialized'], \"from V2 : contract already initialized\");\r\n    if(!_boolStorage['initialized']) {\r\n      _owner = _firstOne;\r\n      _boolStorage[\"initialized\"] = true;\r\n      _paused = false;\r\n      _uintStorage['minimumBet'] = 10**15;//10 finney;//0.001ether\r\n      _uintStorage['maximumBet'] = 10**17;//1000 finney;//0.1ether\r\n      _uintStorage['jackpotFactor'] = 3;\r\n    }\r\n  }\r\n\r\n  //----------------Getters\r\n  function getContractBalance() public view returns (uint) {\r\n      return address(this).balance;\r\n  }\r\n\r\n  //return reward of all the users\r\n  function getTotalRewardToClaim() public view returns (uint) {\r\n      return _uintStorage['totalRewardToClaim'];\r\n  }\r\n\r\n  //return reward of the user\r\n  function getTotalReward() public view returns(uint256) {\r\n    return _Accounts[msg.sender]._uintAccount['rewardToClaim'];\r\n  }\r\n\r\n  function getSettings() public view returns(uint256 min, uint256 max, uint256 fact) {\r\n    return (_uintStorage['minimumBet'], _uintStorage['maximumBet'], _uintStorage['jackpotFactor']);\r\n  }\r\n\r\n  function getName(address _user) public view returns(string memory) {\r\n    return _Accounts[_user]._name;\r\n  }\r\n\r\n  function getPauseState() public view returns(bool) {\r\n    return _paused;\r\n  }\r\n\r\n  function getOwnerAdd() public view returns(address) {\r\n    return _owner;\r\n  }\r\n\r\n  function getMsgToChain() public view returns(string memory) {\r\n    return _MsgToChain;\r\n  }\r\n  //----------------Setters & Updaters\r\n  //pause/unpause the functions\r\n  function pause() public onlyOwner whenNotPaused{\r\n    _paused = true;\r\n    emit evtPauseSet(\"pause\", _paused);\r\n  }\r\n  function unPause() public onlyOwner whenPaused{\r\n    _paused = false;\r\n    emit evtPauseSet(\"pause\", _paused);\r\n  }\r\n\r\n  function setName(string memory _n) public {\r\n    addAccount();\r\n    _Accounts[msg.sender]._name = _n;\r\n\r\n    emit evtNameSet(msg.sender, _n);\r\n  }\r\n\r\n  //add an account if user is not known\r\n  function addAccount() internal {\r\n    if (!_Accounts[msg.sender]._isKnown) {\r\n      _listOfAccounts.push(msg.sender);\r\n      _Accounts[msg.sender]._isKnown = true;\r\n      }\r\n  }\r\n\r\n  function updateMinimumBet(uint256 _newMinimum) public onlyOwner {\r\n    require(_newMinimum < _uintStorage['maximumBet'], \"minimum should be less than maximum\");\r\n    _uintStorage['minimumBet'] = _newMinimum;\r\n    emit evtSettingsUpdated(\"minimumBet\", _newMinimum);\r\n  }\r\n\r\n  function updateMaximumBet(uint256 _newMaximum) public onlyOwner {\r\n    require(_newMaximum > _uintStorage['minimumBet'], \"maximum should be more than minimum\");\r\n    _uintStorage['maximumBet'] = _newMaximum;\r\n    emit evtSettingsUpdated(\"maximumBet\", _newMaximum);\r\n  }\r\n\r\n  function updateJackpotFactor(uint256 _newFactor) public onlyOwner {\r\n    _uintStorage['jackpotFactor'] = _newFactor;\r\n    emit evtSettingsUpdated(\"jackpotFactor\", _newFactor);\r\n  }\r\n\r\n  function setMsgToChain(string memory _msg) public onlyOwner whenPaused{\r\n    _MsgToChain = _msg;\r\n    emit evtMsgToChain(_msg);\r\n  }\r\n\r\n  //----------------Functions : funding\r\n  //Fund the Contract\r\n  function deposit() public payable onlyOwner {\r\n      require(msg.value != 0);\r\n      emit evtFundingOperation(\"deposit\",msg.sender, msg.value);\r\n  }\r\n\r\n  //Withdraw all to the owner\r\n  function emergencyWithdrawAll() public onlyOwner whenPaused {\r\n      withdraw(address(this).balance, msg.sender);\r\n      emit evtFundingOperation(\"emergencyWithdrawAll\",msg.sender, address(this).balance);\r\n    //  return address(this).balance;\r\n  }\r\n\r\n  //Withdraw the rewards not claimed to all the users\r\n  //loop all the users and claim\r\n  function emergencyClaimAllRewards() public onlyOwner whenPaused {\r\n    //call to .length overflow if array is empty => in this case revert)\r\n    require(_listOfAccounts.length > 0, \"size of _listOfAccounts not consistent\");\r\n    uint256 totalOfAccounts = _listOfAccounts.length;\r\n\r\n    for(uint256 i = 0; i < totalOfAccounts; i++) {\r\n      address accountId = _listOfAccounts[i];\r\n      if (_Accounts[accountId]._uintAccount['rewardToClaim'] > 0) {\r\n        withdrawReward(accountId);\r\n      }\r\n    }\r\n    emit evtFundingOperation(\"emergencyClaimAllRewards\",msg.sender, 0);\r\n  }\r\n\r\n  //claim rewards of one user =>call from front end\r\n  function claimRewards() public whenNotPaused {\r\n      withdrawReward(msg.sender);\r\n  }\r\n\r\n  //claim rewards of one user =>call from emergencyClaimAllRewards or claimRewards\r\n  function withdrawReward(address _user) private {\r\n      //gather the reward in bets from user to compare the amount in the account\r\n      require(_listOfBets.length > 0, \"size of _listOfBets not consistent\");\r\n      require(_Accounts[_user]._accountBets.length > 0, \"size of _accountBets not consistent\");\r\n\r\n      uint256 rewardsToClaim = 0;\r\n      uint256 firstBetToClaimId = 0;\r\n      uint256 totalBetsOfUser = _Accounts[_user]._accountBets.length;\r\n      uint256 nbrOfBetsStored = _listOfBets.length - 1;\r\n\r\n      if (_Accounts[_user]._firstBetToClaimId > 0) {\r\n        firstBetToClaimId = _Accounts[_user]._firstBetToClaimId - 1;\r\n        for(uint256 i = firstBetToClaimId; i < totalBetsOfUser; i++) {\r\n          uint256 betToCheckId = _Accounts[_user]._accountBets[i];\r\n          if(betToCheckId <= nbrOfBetsStored) {\r\n              if (!_listOfBets[betToCheckId]._isClaimed){\r\n                _listOfBets[betToCheckId]._isClaimed = true;\r\n              }\r\n          }\r\n        }\r\n        _Accounts[_user]._firstBetToClaimId = 0;\r\n      }\r\n      //faire assert rew=0 et tot\r\n      rewardsToClaim = _Accounts[_user]._uintAccount['rewardToClaim'];\r\n      _uintStorage['totalRewardToClaim'] -= rewardsToClaim;\r\n      _Accounts[_user]._uintAccount['rewardToClaim'] = 0;\r\n\r\n      emit evtFundingOperation(\"claimRewards\", _user, rewardsToClaim);\r\n      withdraw(rewardsToClaim, _user);\r\n  }\r\n\r\n  //withdraw generic\r\n  function withdraw(uint256 _amount, address _user) internal {\r\n      require(_amount <= getContractBalance(), \"amount to withdraw > balance\");//address(this).balance, \"rewards > balance\");\r\n      //cast adr to payable in solidity 0.5 : address(uint160(addr1))\r\n      address payable addrOfUser = address(uint160(_user));\r\n      uint256 balanceAftreTransfer = getContractBalance() - _amount;\r\n\r\n      addrOfUser.transfer(_amount);\r\n      assert(getContractBalance() == balanceAftreTransfer);\r\n\r\n      emit evtFundingOperation(\"withdraw\", _user, _amount);\r\n  }\r\n\r\n}\r\n",
  "sourcePath": "C:\\Xdev\\blockchain\\ethereumCourseAdvanced\\CoinflipDapp\\contracts\\CoinflipBase.sol",
  "compiler": {
    "name": "solc",
    "version": "0.5.2+commit.1df8f40c.Emscripten.clang"
  },
  "schemaVersion": "3.1.0",
  "updatedAt": "2020-05-22T21:08:41.911Z",
  "devdoc": {
    "methods": {}
  },
  "userdoc": {
    "methods": {}
  }
}