{
  "contractName": "CoinflipMainV2",
  "abi": [
    {
      "constant": false,
      "inputs": [],
      "name": "claimRewards",
      "outputs": [],
      "payable": false,
      "stateMutability": "nonpayable",
      "type": "function"
    },
    {
      "constant": true,
      "inputs": [],
      "name": "getMsgToChain",
      "outputs": [
        {
          "name": "",
          "type": "string"
        }
      ],
      "payable": false,
      "stateMutability": "view",
      "type": "function"
    },
    {
      "constant": true,
      "inputs": [
        {
          "name": "_user",
          "type": "address"
        }
      ],
      "name": "getName",
      "outputs": [
        {
          "name": "",
          "type": "string"
        }
      ],
      "payable": false,
      "stateMutability": "view",
      "type": "function"
    },
    {
      "constant": false,
      "inputs": [],
      "name": "emergencyClaimAllRewards",
      "outputs": [],
      "payable": false,
      "stateMutability": "nonpayable",
      "type": "function"
    },
    {
      "constant": true,
      "inputs": [],
      "name": "getContractBalance",
      "outputs": [
        {
          "name": "",
          "type": "uint256"
        }
      ],
      "payable": false,
      "stateMutability": "view",
      "type": "function"
    },
    {
      "constant": false,
      "inputs": [
        {
          "name": "_newMinimum",
          "type": "uint256"
        }
      ],
      "name": "updateMinimumBet",
      "outputs": [],
      "payable": false,
      "stateMutability": "nonpayable",
      "type": "function"
    },
    {
      "constant": true,
      "inputs": [],
      "name": "getTotalReward",
      "outputs": [
        {
          "name": "",
          "type": "uint256"
        }
      ],
      "payable": false,
      "stateMutability": "view",
      "type": "function"
    },
    {
      "constant": false,
      "inputs": [
        {
          "name": "_msg",
          "type": "string"
        }
      ],
      "name": "setMsgToChain",
      "outputs": [],
      "payable": false,
      "stateMutability": "nonpayable",
      "type": "function"
    },
    {
      "constant": false,
      "inputs": [],
      "name": "pause",
      "outputs": [],
      "payable": false,
      "stateMutability": "nonpayable",
      "type": "function"
    },
    {
      "constant": true,
      "inputs": [],
      "name": "getSettings",
      "outputs": [
        {
          "name": "min",
          "type": "uint256"
        },
        {
          "name": "max",
          "type": "uint256"
        },
        {
          "name": "fact",
          "type": "uint256"
        }
      ],
      "payable": false,
      "stateMutability": "view",
      "type": "function"
    },
    {
      "constant": true,
      "inputs": [],
      "name": "getPauseState",
      "outputs": [
        {
          "name": "",
          "type": "bool"
        }
      ],
      "payable": false,
      "stateMutability": "view",
      "type": "function"
    },
    {
      "constant": false,
      "inputs": [
        {
          "name": "_newMaximum",
          "type": "uint256"
        }
      ],
      "name": "updateMaximumBet",
      "outputs": [],
      "payable": false,
      "stateMutability": "nonpayable",
      "type": "function"
    },
    {
      "constant": false,
      "inputs": [
        {
          "name": "_n",
          "type": "string"
        }
      ],
      "name": "setName",
      "outputs": [],
      "payable": false,
      "stateMutability": "nonpayable",
      "type": "function"
    },
    {
      "constant": false,
      "inputs": [
        {
          "name": "_firstOne",
          "type": "address"
        }
      ],
      "name": "initialize",
      "outputs": [],
      "payable": false,
      "stateMutability": "nonpayable",
      "type": "function"
    },
    {
      "constant": false,
      "inputs": [],
      "name": "deposit",
      "outputs": [],
      "payable": true,
      "stateMutability": "payable",
      "type": "function"
    },
    {
      "constant": true,
      "inputs": [],
      "name": "getOwnerAdd",
      "outputs": [
        {
          "name": "",
          "type": "address"
        }
      ],
      "payable": false,
      "stateMutability": "view",
      "type": "function"
    },
    {
      "constant": false,
      "inputs": [
        {
          "name": "_newFactor",
          "type": "uint256"
        }
      ],
      "name": "updateJackpotFactor",
      "outputs": [],
      "payable": false,
      "stateMutability": "nonpayable",
      "type": "function"
    },
    {
      "constant": false,
      "inputs": [],
      "name": "emergencyWithdrawAll",
      "outputs": [],
      "payable": false,
      "stateMutability": "nonpayable",
      "type": "function"
    },
    {
      "constant": true,
      "inputs": [],
      "name": "getTotalRewardToClaim",
      "outputs": [
        {
          "name": "",
          "type": "uint256"
        }
      ],
      "payable": false,
      "stateMutability": "view",
      "type": "function"
    },
    {
      "constant": false,
      "inputs": [],
      "name": "unPause",
      "outputs": [],
      "payable": false,
      "stateMutability": "nonpayable",
      "type": "function"
    },
    {
      "inputs": [],
      "payable": false,
      "stateMutability": "nonpayable",
      "type": "constructor"
    },
    {
      "anonymous": false,
      "inputs": [
        {
          "indexed": false,
          "name": "_user",
          "type": "address"
        },
        {
          "indexed": false,
          "name": "_msg",
          "type": "string"
        },
        {
          "indexed": false,
          "name": "_id",
          "type": "uint256"
        },
        {
          "indexed": false,
          "name": "_amount",
          "type": "uint256"
        }
      ],
      "name": "evtBetOpened",
      "type": "event"
    },
    {
      "anonymous": false,
      "inputs": [
        {
          "indexed": false,
          "name": "_user",
          "type": "address"
        },
        {
          "indexed": false,
          "name": "_msg",
          "type": "string"
        }
      ],
      "name": "evtBetQuery",
      "type": "event"
    },
    {
      "anonymous": false,
      "inputs": [
        {
          "indexed": false,
          "name": "_user",
          "type": "address"
        },
        {
          "indexed": false,
          "name": "_msg",
          "type": "string"
        },
        {
          "indexed": false,
          "name": "_randomResult",
          "type": "uint256"
        }
      ],
      "name": "evtBetResume",
      "type": "event"
    },
    {
      "anonymous": false,
      "inputs": [
        {
          "indexed": false,
          "name": "_user",
          "type": "address"
        },
        {
          "indexed": false,
          "name": "_isWon",
          "type": "bool"
        }
      ],
      "name": "evtBetResult",
      "type": "event"
    },
    {
      "anonymous": false,
      "inputs": [
        {
          "indexed": false,
          "name": "_user",
          "type": "address"
        },
        {
          "indexed": false,
          "name": "_status",
          "type": "string"
        },
        {
          "indexed": false,
          "name": "_id",
          "type": "uint256"
        }
      ],
      "name": "evtBetClosed",
      "type": "event"
    },
    {
      "anonymous": false,
      "inputs": [
        {
          "indexed": false,
          "name": "_user",
          "type": "address"
        },
        {
          "indexed": false,
          "name": "_name",
          "type": "string"
        }
      ],
      "name": "evtNameSet",
      "type": "event"
    },
    {
      "anonymous": false,
      "inputs": [
        {
          "indexed": false,
          "name": "_param",
          "type": "string"
        },
        {
          "indexed": false,
          "name": "_value",
          "type": "uint256"
        }
      ],
      "name": "evtSettingsUpdated",
      "type": "event"
    },
    {
      "anonymous": false,
      "inputs": [
        {
          "indexed": false,
          "name": "_param",
          "type": "string"
        },
        {
          "indexed": false,
          "name": "_value",
          "type": "bool"
        }
      ],
      "name": "evtPauseSet",
      "type": "event"
    },
    {
      "anonymous": false,
      "inputs": [
        {
          "indexed": false,
          "name": "_type",
          "type": "string"
        },
        {
          "indexed": false,
          "name": "_origin",
          "type": "address"
        },
        {
          "indexed": false,
          "name": "_newValue",
          "type": "uint256"
        }
      ],
      "name": "evtFundingOperation",
      "type": "event"
    },
    {
      "anonymous": false,
      "inputs": [
        {
          "indexed": false,
          "name": "_msg",
          "type": "string"
        }
      ],
      "name": "evtMsgToChain",
      "type": "event"
    },
    {
      "constant": true,
      "inputs": [
        {
          "name": "_user",
          "type": "address"
        }
      ],
      "name": "getUserPendingBetState",
      "outputs": [
        {
          "name": "",
          "type": "bool"
        }
      ],
      "payable": false,
      "stateMutability": "view",
      "type": "function"
    },
    {
      "constant": false,
      "inputs": [],
      "name": "flip",
      "outputs": [],
      "payable": true,
      "stateMutability": "payable",
      "type": "function"
    },
    {
      "constant": false,
      "inputs": [
        {
          "name": "_myid",
          "type": "bytes32"
        },
        {
          "name": "_result",
          "type": "string"
        }
      ],
      "name": "__callback",
      "outputs": [],
      "payable": false,
      "stateMutability": "nonpayable",
      "type": "function"
    },
    {
      "constant": false,
      "inputs": [
        {
          "name": "_queryId",
          "type": "bytes32"
        },
        {
          "name": "_result",
          "type": "string"
        },
        {
          "name": "_proof",
          "type": "bytes"
        }
      ],
      "name": "__callback",
      "outputs": [],
      "payable": false,
      "stateMutability": "nonpayable",
      "type": "function"
    }
  ],
  "bytecode": "0x60806040523480156200001157600080fd5b506200002c3362000032640100000000026401000000009004565b62000213565b600760405180807f696e697469616c697a6564000000000000000000000000000000000000000000815250600b019050908152602001604051809103902060009054906101000a900460ff1615156200021057806000806101000a81548173ffffffffffffffffffffffffffffffffffffffff021916908373ffffffffffffffffffffffffffffffffffffffff1602179055506001600760405180807f696e697469616c697a6564000000000000000000000000000000000000000000815250600b019050908152602001604051809103902060006101000a81548160ff02191690831515021790555060008060146101000a81548160ff02191690831515021790555066038d7ea4c68000600660405180807f6d696e696d756d42657400000000000000000000000000000000000000000000815250600a01905090815260200160405180910390208190555067016345785d8a0000600660405180807f6d6178696d756d42657400000000000000000000000000000000000000000000815250600a0190509081526020016040518091039020819055506003600660405180807f6a61636b706f74466163746f7200000000000000000000000000000000000000815250600d0190509081526020016040518091039020819055505b50565b61411680620002236000396000f3fe608060405260043610610168576000357c01000000000000000000000000000000000000000000000000000000009004806385b4bb53116100d3578063d0e30db01161008c578063d0e30db0146108cf578063d66d2a57146108d9578063d919124314610930578063dd1917191461096b578063f39c9b0014610982578063f7b188a5146109ad57610168565b806385b4bb53146107095780639a44f1fb14610742578063c15174a114610771578063c47f0027146107ac578063c4d66de814610874578063cde4efa9146108c557610168565b80636b797762116101255780636b797762146105825780636f9fb98a146105995780637a6b4500146105c45780637d1fcbfa146105ff57806380a3e99b1461062a5780638456cb59146106f257610168565b806327dc297e1461016d578063372500ab1461023f57806338bbfa501461025657806353274745146103bf578063560ef1171461044f5780635fd4b08a146104b8575b600080fd5b34801561017957600080fd5b5061023d6004803603604081101561019057600080fd5b8101908080359060200190929190803590602001906401000000008111156101b757600080fd5b8201836020820111156101c957600080fd5b803590602001918460018302840111640100000000831117156101eb57600080fd5b91908080601f016020809104026020016040519081016040528093929190818152602001838380828437600081840152601f19601f8201169050808301925050505050505091929192905050506109c4565b005b34801561024b57600080fd5b50610254610a07565b005b34801561026257600080fd5b506103bd6004803603606081101561027957600080fd5b8101908080359060200190929190803590602001906401000000008111156102a057600080fd5b8201836020820111156102b257600080fd5b803590602001918460018302840111640100000000831117156102d457600080fd5b91908080601f016020809104026020016040519081016040528093929190818152602001838380828437600081840152601f19601f8201169050808301925050505050505091929192908035906020019064010000000081111561033757600080fd5b82018360208201111561034957600080fd5b8035906020019184600183028401116401000000008311171561036b57600080fd5b91908080601f016020809104026020016040519081016040528093929190818152602001838380828437600081840152601f19601f820116905080830192505050505050509192919290505050610a2e565b005b3480156103cb57600080fd5b506103d4610bcd565b6040518080602001828103825283818151815260200191508051906020019080838360005b838110156104145780820151818401526020810190506103f9565b50505050905090810190601f1680156104415780820380516001836020036101000a031916815260200191505b509250505060405180910390f35b34801561045b57600080fd5b5061049e6004803603602081101561047257600080fd5b81019080803573ffffffffffffffffffffffffffffffffffffffff169060200190929190505050610c6f565b604051808215151515815260200191505060405180910390f35b3480156104c457600080fd5b50610507600480360360208110156104db57600080fd5b81019080803573ffffffffffffffffffffffffffffffffffffffff169060200190929190505050610cc8565b6040518080602001828103825283818151815260200191508051906020019080838360005b8381101561054757808201518184015260208101905061052c565b50505050905090810190601f1680156105745780820380516001836020036101000a031916815260200191505b509250505060405180910390f35b34801561058e57600080fd5b50610597610dac565b005b3480156105a557600080fd5b506105ae611020565b6040518082815260200191505060405180910390f35b3480156105d057600080fd5b506105fd600480360360208110156105e757600080fd5b810190808035906020019092919050505061103f565b005b34801561060b57600080fd5b506106146111e8565b6040518082815260200191505060405180910390f35b34801561063657600080fd5b506106f06004803603602081101561064d57600080fd5b810190808035906020019064010000000081111561066a57600080fd5b82018360208201111561067c57600080fd5b8035906020019184600183028401116401000000008311171561069e57600080fd5b91908080601f016020809104026020016040519081016040528093929190818152602001838380828437600081840152601f19601f82011690508083019250505050505050919291929050505061126e565b005b3480156106fe57600080fd5b5061070761139a565b005b34801561071557600080fd5b5061071e6114b1565b60405180848152602001838152602001828152602001935050505060405180910390f35b34801561074e57600080fd5b5061075761157e565b604051808215151515815260200191505060405180910390f35b34801561077d57600080fd5b506107aa6004803603602081101561079457600080fd5b8101908080359060200190929190505050611594565b005b3480156107b857600080fd5b50610872600480360360208110156107cf57600080fd5b81019080803590602001906401000000008111156107ec57600080fd5b8201836020820111156107fe57600080fd5b8035906020019184600183028401116401000000008311171561082057600080fd5b91908080601f016020809104026020016040519081016040528093929190818152602001838380828437600081840152601f19601f82011690508083019250505050505050919291929050505061173d565b005b34801561088057600080fd5b506108c36004803603602081101561089757600080fd5b81019080803573ffffffffffffffffffffffffffffffffffffffff16906020019092919050505061186f565b005b6108cd611a4f565b005b6108d7612276565b005b3480156108e557600080fd5b506108ee612387565b604051808273ffffffffffffffffffffffffffffffffffffffff1673ffffffffffffffffffffffffffffffffffffffff16815260200191505060405180910390f35b34801561093c57600080fd5b506109696004803603602081101561095357600080fd5b81019080803590602001909291905050506123b0565b005b34801561097757600080fd5b506109806124c1565b005b34801561098e57600080fd5b50610997612615565b6040518082815260200191505060405180910390f35b3480156109b957600080fd5b506109c261265b565b005b610a03828260006040519080825280601f01601f1916602001820160405280156109fd5781602001600182028038833980820191505090505b50610a2e565b5050565b600060149054906101000a900460ff16151515610a2357600080fd5b610a2c33612770565b565b610a36612ca6565b73ffffffffffffffffffffffffffffffffffffffff163373ffffffffffffffffffffffffffffffffffffffff16141515610a6f57600080fd5b60006005600085815260200190815260200160002060009054906101000a900473ffffffffffffffffffffffffffffffffffffffff1690506000836040516020018082805190602001908083835b602083101515610ae25780518252602082019150602081019050602083039250610abd565b6001836020036101000a038019825116818451168082178552505050505050905001915050604051602081830303815290604052805190602001206001900490506000600282811515610b3157fe5b0690507fb78e378df8cf6412ca8f1c7ed223278f7b22d66c1782105ae7b345a4514a49268383604051808373ffffffffffffffffffffffffffffffffffffffff1673ffffffffffffffffffffffffffffffffffffffff168152602001806020018381526020018281038252602981526020018061402660299139604001935050505060405180910390a1610bc5818461301c565b505050505050565b606060018054600181600116156101000203166002900480601f016020809104026020016040519081016040528092919081815260200182805460018160011615610100020316600290048015610c655780601f10610c3a57610100808354040283529160200191610c65565b820191906000526020600020905b815481529060010190602001808311610c4857829003601f168201915b5050505050905090565b6000600460008373ffffffffffffffffffffffffffffffffffffffff1673ffffffffffffffffffffffffffffffffffffffff16815260200190815260200160002060000160009054906101000a900460ff169050919050565b6060600460008373ffffffffffffffffffffffffffffffffffffffff1673ffffffffffffffffffffffffffffffffffffffff1681526020019081526020016000206001018054600181600116156101000203166002900480601f016020809104026020016040519081016040528092919081815260200182805460018160011615610100020316600290048015610da05780601f10610d7557610100808354040283529160200191610da0565b820191906000526020600020905b815481529060010190602001808311610d8357829003601f168201915b50505050509050919050565b6000809054906101000a900473ffffffffffffffffffffffffffffffffffffffff1673ffffffffffffffffffffffffffffffffffffffff163373ffffffffffffffffffffffffffffffffffffffff16141515610e0757600080fd5b600060149054906101000a900460ff161515610e2257600080fd5b6000600380549050111515610e82576040517f08c379a0000000000000000000000000000000000000000000000000000000008152600401808060200182810382526026815260200180613f8b6026913960400191505060405180910390fd5b6000600380549050905060008090505b81811015610f77576000600382815481101515610eab57fe5b9060005260206000200160009054906101000a900473ffffffffffffffffffffffffffffffffffffffff1690506000600460008373ffffffffffffffffffffffffffffffffffffffff1673ffffffffffffffffffffffffffffffffffffffff16815260200190815260200160002060040160405180807f726577617264546f436c61696d00000000000000000000000000000000000000815250600d0190509081526020016040518091039020541115610f6957610f6881612770565b5b508080600101915050610e92565b507fa3352da71571a4ee5cbb1e86a8ee21cb920d7960c68f2769f5647000519fff7533600060405180806020018473ffffffffffffffffffffffffffffffffffffffff1673ffffffffffffffffffffffffffffffffffffffff168152602001838152602001828103825260188152602001807f656d657267656e6379436c61696d416c6c526577617264730000000000000000815250602001935050505060405180910390a150565b60003073ffffffffffffffffffffffffffffffffffffffff1631905090565b6000809054906101000a900473ffffffffffffffffffffffffffffffffffffffff1673ffffffffffffffffffffffffffffffffffffffff163373ffffffffffffffffffffffffffffffffffffffff1614151561109a57600080fd5b600660405180807f6d6178696d756d42657400000000000000000000000000000000000000000000815250600a01905090815260200160405180910390205481101515611132576040517f08c379a000000000000000000000000000000000000000000000000000000000815260040180806020018281038252602381526020018061404f6023913960400191505060405180910390fd5b80600660405180807f6d696e696d756d42657400000000000000000000000000000000000000000000815250600a0190509081526020016040518091039020819055507fea6db58bafc47fdd26fae1c0699ddff82c76d9f1a0811f269dc46a1744d45ec48160405180806020018381526020018281038252600a8152602001807f6d696e696d756d426574000000000000000000000000000000000000000000008152506020019250505060405180910390a150565b6000600460003373ffffffffffffffffffffffffffffffffffffffff1673ffffffffffffffffffffffffffffffffffffffff16815260200190815260200160002060040160405180807f726577617264546f436c61696d00000000000000000000000000000000000000815250600d019050908152602001604051809103902054905090565b6000809054906101000a900473ffffffffffffffffffffffffffffffffffffffff1673ffffffffffffffffffffffffffffffffffffffff163373ffffffffffffffffffffffffffffffffffffffff161415156112c957600080fd5b600060149054906101000a900460ff1615156112e457600080fd5b80600190805190602001906112fa929190613eaf565b507f5958d5ee4c18c03c9b7fbd08610f89275c1e8090fa241c3551f05baedd7a673c816040518080602001828103825283818151815260200191508051906020019080838360005b8381101561135d578082015181840152602081019050611342565b50505050905090810190601f16801561138a5780820380516001836020036101000a031916815260200191505b509250505060405180910390a150565b6000809054906101000a900473ffffffffffffffffffffffffffffffffffffffff1673ffffffffffffffffffffffffffffffffffffffff163373ffffffffffffffffffffffffffffffffffffffff161415156113f557600080fd5b600060149054906101000a900460ff1615151561141157600080fd5b6001600060146101000a81548160ff0219169083151502179055507f377bc036fc492cb51725b6253fae95152d1551ffda2ec80dc1acf2996293ee31600060149054906101000a900460ff16604051808060200183151515158152602001828103825260058152602001807f70617573650000000000000000000000000000000000000000000000000000008152506020019250505060405180910390a1565b6000806000600660405180807f6d696e696d756d42657400000000000000000000000000000000000000000000815250600a019050908152602001604051809103902054600660405180807f6d6178696d756d42657400000000000000000000000000000000000000000000815250600a019050908152602001604051809103902054600660405180807f6a61636b706f74466163746f7200000000000000000000000000000000000000815250600d019050908152602001604051809103902054925092509250909192565b60008060149054906101000a900460ff16905090565b6000809054906101000a900473ffffffffffffffffffffffffffffffffffffffff1673ffffffffffffffffffffffffffffffffffffffff163373ffffffffffffffffffffffffffffffffffffffff161415156115ef57600080fd5b600660405180807f6d696e696d756d42657400000000000000000000000000000000000000000000815250600a01905090815260200160405180910390205481111515611687576040517f08c379a00000000000000000000000000000000000000000000000000000000081526004018080602001828103825260238152602001806140c86023913960400191505060405180910390fd5b80600660405180807f6d6178696d756d42657400000000000000000000000000000000000000000000815250600a0190509081526020016040518091039020819055507fea6db58bafc47fdd26fae1c0699ddff82c76d9f1a0811f269dc46a1744d45ec48160405180806020018381526020018281038252600a8152602001807f6d6178696d756d426574000000000000000000000000000000000000000000008152506020019250505060405180910390a150565b611745613673565b80600460003373ffffffffffffffffffffffffffffffffffffffff1673ffffffffffffffffffffffffffffffffffffffff168152602001908152602001600020600101908051906020019061179b929190613eaf565b507f1035157820495308e5c21c2a8e72a7cc906b05ab262ba89771fa4df2245fc6673382604051808373ffffffffffffffffffffffffffffffffffffffff1673ffffffffffffffffffffffffffffffffffffffff16815260200180602001828103825283818151815260200191508051906020019080838360005b83811015611831578082015181840152602081019050611816565b50505050905090810190601f16801561185e5780820380516001836020036101000a031916815260200191505b50935050505060405180910390a150565b600760405180807f696e697469616c697a6564000000000000000000000000000000000000000000815250600b019050908152602001604051809103902060009054906101000a900460ff161515611a4c57806000806101000a81548173ffffffffffffffffffffffffffffffffffffffff021916908373ffffffffffffffffffffffffffffffffffffffff1602179055506001600760405180807f696e697469616c697a6564000000000000000000000000000000000000000000815250600b019050908152602001604051809103902060006101000a81548160ff02191690831515021790555060008060146101000a81548160ff02191690831515021790555066038d7ea4c68000600660405180807f6d696e696d756d42657400000000000000000000000000000000000000000000815250600a01905090815260200160405180910390208190555067016345785d8a0000600660405180807f6d6178696d756d42657400000000000000000000000000000000000000000000815250600a0190509081526020016040518091039020819055506003600660405180807f6a61636b706f74466163746f7200000000000000000000000000000000000000815250600d0190509081526020016040518091039020819055505b50565b343360006002600660405180807f746f74616c526577617264546f436c61696d00000000000000000000000000008152506012019050908152602001604051809103902054611a9c611020565b03811515611aa657fe5b049050600660405180807f6d6178696d756d42657400000000000000000000000000000000000000000000815250600a0190509081526020016040518091039020548311151515611b5f576040517f08c379a000000000000000000000000000000000000000000000000000000000815260040180806020018281038252600d8152602001807f626574203e206d6178696d756d0000000000000000000000000000000000000081525060200191505060405180910390fd5b600660405180807f6d696e696d756d42657400000000000000000000000000000000000000000000815250600a0190509081526020016040518091039020548310151515611c15576040517f08c379a000000000000000000000000000000000000000000000000000000000815260040180806020018281038252600d8152602001807f626574203c206d696e696d756d0000000000000000000000000000000000000081525060200191505060405180910390fd5b808311151515611c70576040517f08c379a00000000000000000000000000000000000000000000000000000000081526004018080602001828103825260338152602001806140726033913960400191505060405180910390fd5b60001515600460008473ffffffffffffffffffffffffffffffffffffffff1673ffffffffffffffffffffffffffffffffffffffff16815260200190815260200160002060000160009054906101000a900460ff161515141515611d3b576040517f08c379a000000000000000000000000000000000000000000000000000000000815260040180806020018281038252601b8152602001807f757365722068617320616c7265616479206120626574206f70656e000000000081525060200191505060405180910390fd5b600060149054906101000a900460ff16151515611d5757600080fd5b611d5f613673565b611d67613f2f565b34816000018181525050600660405180807f6a61636b706f74466163746f7200000000000000000000000000000000000000815250600d0190509081526020016040518091039020548160200181815250506000600160028390806001815401808255809150509060018203906000526020600020906003020160009091929091909150600082015181600001556020820151816001015560408201518160020160006101000a81548160ff02191690831515021790555060608201518160020160016101000a81548160ff02191690831515021790555060808201518160020160026101000a81548160ff021916908315150217905550505003905080600460003373ffffffffffffffffffffffffffffffffffffffff1673ffffffffffffffffffffffffffffffffffffffff16815260200190815260200160002060040160405180807f6c6173744265744f665573657249640000000000000000000000000000000000815250600f019050908152602001604051809103902081905550600460003373ffffffffffffffffffffffffffffffffffffffff1673ffffffffffffffffffffffffffffffffffffffff1681526020019081526020016000206003018190806001815401808255809150509060018203906000526020600020016000909192909190915055506001600460003373ffffffffffffffffffffffffffffffffffffffff1673ffffffffffffffffffffffffffffffffffffffff16815260200190815260200160002060000160006101000a81548160ff0219169083151502179055507feaa0c6e554f633424a32323f267460f3b212d47b9f1a8568898f6b6f16a525ca338234604051808473ffffffffffffffffffffffffffffffffffffffff1673ffffffffffffffffffffffffffffffffffffffff16815260200180602001848152602001838152602001828103825260218152602001806140056021913960400194505050505060405180910390a160006127104281151561204c57fe5b06612710600460003373ffffffffffffffffffffffffffffffffffffffff1673ffffffffffffffffffffffffffffffffffffffff16815260200190815260200160002060030180549050020190506000816040516020018082815260200191505060405160208183030381529060405280519060200120905060006002838115156120d357fe5b06905060606000821461211b576040805190810160405280600181526020017f3100000000000000000000000000000000000000000000000000000000000000815250612152565b6040805190810160405280600181526020017f30000000000000000000000000000000000000000000000000000000000000008152505b905060606040805190810160405280600981526020017f7465737470726f6f6600000000000000000000000000000000000000000000008152509050336005600086815260200190815260200160002060006101000a81548173ffffffffffffffffffffffffffffffffffffffff021916908373ffffffffffffffffffffffffffffffffffffffff1602179055507f6547ce182cf9e7fd1208836f0322fdfcbeab1ad527e4705c8d1e40e9812a376533604051808273ffffffffffffffffffffffffffffffffffffffff1673ffffffffffffffffffffffffffffffffffffffff1681526020018060200182810382526032815260200180613fd3603291396040019250505060405180910390a161226a848383610a2e565b50505050505050505050565b6000809054906101000a900473ffffffffffffffffffffffffffffffffffffffff1673ffffffffffffffffffffffffffffffffffffffff163373ffffffffffffffffffffffffffffffffffffffff161415156122d157600080fd5b600034141515156122e157600080fd5b7fa3352da71571a4ee5cbb1e86a8ee21cb920d7960c68f2769f5647000519fff75333460405180806020018473ffffffffffffffffffffffffffffffffffffffff1673ffffffffffffffffffffffffffffffffffffffff168152602001838152602001828103825260078152602001807f6465706f73697400000000000000000000000000000000000000000000000000815250602001935050505060405180910390a1565b60008060009054906101000a900473ffffffffffffffffffffffffffffffffffffffff16905090565b6000809054906101000a900473ffffffffffffffffffffffffffffffffffffffff1673ffffffffffffffffffffffffffffffffffffffff163373ffffffffffffffffffffffffffffffffffffffff1614151561240b57600080fd5b80600660405180807f6a61636b706f74466163746f7200000000000000000000000000000000000000815250600d0190509081526020016040518091039020819055507fea6db58bafc47fdd26fae1c0699ddff82c76d9f1a0811f269dc46a1744d45ec48160405180806020018381526020018281038252600d8152602001807f6a61636b706f74466163746f72000000000000000000000000000000000000008152506020019250505060405180910390a150565b6000809054906101000a900473ffffffffffffffffffffffffffffffffffffffff1673ffffffffffffffffffffffffffffffffffffffff163373ffffffffffffffffffffffffffffffffffffffff1614151561251c57600080fd5b600060149054906101000a900460ff16151561253757600080fd5b6125583073ffffffffffffffffffffffffffffffffffffffff16313361378d565b7fa3352da71571a4ee5cbb1e86a8ee21cb920d7960c68f2769f5647000519fff75333073ffffffffffffffffffffffffffffffffffffffff163160405180806020018473ffffffffffffffffffffffffffffffffffffffff1673ffffffffffffffffffffffffffffffffffffffff168152602001838152602001828103825260148152602001807f656d657267656e63795769746864726177416c6c000000000000000000000000815250602001935050505060405180910390a1565b6000600660405180807f746f74616c526577617264546f436c61696d00000000000000000000000000008152506012019050908152602001604051809103902054905090565b6000809054906101000a900473ffffffffffffffffffffffffffffffffffffffff1673ffffffffffffffffffffffffffffffffffffffff163373ffffffffffffffffffffffffffffffffffffffff161415156126b657600080fd5b600060149054906101000a900460ff1615156126d157600080fd5b60008060146101000a81548160ff0219169083151502179055507f377bc036fc492cb51725b6253fae95152d1551ffda2ec80dc1acf2996293ee31600060149054906101000a900460ff16604051808060200183151515158152602001828103825260058152602001807f70617573650000000000000000000000000000000000000000000000000000008152506020019250505060405180910390a1565b60006002805490501115156127d0576040517f08c379a0000000000000000000000000000000000000000000000000000000008152600401808060200182810382526022815260200180613fb16022913960400191505060405180910390fd5b6000600460008373ffffffffffffffffffffffffffffffffffffffff1673ffffffffffffffffffffffffffffffffffffffff16815260200190815260200160002060030180549050111515612870576040517f08c379a00000000000000000000000000000000000000000000000000000000081526004018080602001828103825260238152602001806140a56023913960400191505060405180910390fd5b600080905060008090506000600460008573ffffffffffffffffffffffffffffffffffffffff1673ffffffffffffffffffffffffffffffffffffffff168152602001908152602001600020600301805490509050600060016002805490500390506000600460008773ffffffffffffffffffffffffffffffffffffffff1673ffffffffffffffffffffffffffffffffffffffff168152602001908152602001600020600201541115612aa0576001600460008773ffffffffffffffffffffffffffffffffffffffff1673ffffffffffffffffffffffffffffffffffffffff1681526020019081526020016000206002015403925060008390505b82811015612a56576000600460008873ffffffffffffffffffffffffffffffffffffffff1673ffffffffffffffffffffffffffffffffffffffff168152602001908152602001600020600301828154811015156129c357fe5b906000526020600020015490508281111515612a48576002818154811015156129e857fe5b906000526020600020906003020160020160029054906101000a900460ff161515612a47576001600282815481101515612a1e57fe5b906000526020600020906003020160020160026101000a81548160ff0219169083151502179055505b5b50808060010191505061296a565b506000600460008773ffffffffffffffffffffffffffffffffffffffff1673ffffffffffffffffffffffffffffffffffffffff168152602001908152602001600020600201819055505b600460008673ffffffffffffffffffffffffffffffffffffffff1673ffffffffffffffffffffffffffffffffffffffff16815260200190815260200160002060040160405180807f726577617264546f436c61696d00000000000000000000000000000000000000815250600d019050908152602001604051809103902054935083600660405180807f746f74616c526577617264546f436c61696d000000000000000000000000000081525060120190509081526020016040518091039020600082825403925050819055506000600460008773ffffffffffffffffffffffffffffffffffffffff1673ffffffffffffffffffffffffffffffffffffffff16815260200190815260200160002060040160405180807f726577617264546f436c61696d00000000000000000000000000000000000000815250600d0190509081526020016040518091039020819055507fa3352da71571a4ee5cbb1e86a8ee21cb920d7960c68f2769f5647000519fff75858560405180806020018473ffffffffffffffffffffffffffffffffffffffff1673ffffffffffffffffffffffffffffffffffffffff1681526020018381526020018281038252600c8152602001807f636c61696d526577617264730000000000000000000000000000000000000000815250602001935050505060405180910390a1612c9f848661378d565b5050505050565b60008073ffffffffffffffffffffffffffffffffffffffff16600960009054906101000a900473ffffffffffffffffffffffffffffffffffffffff1673ffffffffffffffffffffffffffffffffffffffff161480612d2e57506000612d2c600960009054906101000a900473ffffffffffffffffffffffffffffffffffffffff16613922565b145b15612d3f57612d3d600061392d565b505b600960009054906101000a900473ffffffffffffffffffffffffffffffffffffffff1673ffffffffffffffffffffffffffffffffffffffff166338cc48316040518163ffffffff167c0100000000000000000000000000000000000000000000000000000000028152600401602060405180830381600087803b158015612dc557600080fd5b505af1158015612dd9573d6000803e3d6000fd5b505050506040513d6020811015612def57600080fd5b810190808051906020019092919050505073ffffffffffffffffffffffffffffffffffffffff16600860009054906101000a900473ffffffffffffffffffffffffffffffffffffffff1673ffffffffffffffffffffffffffffffffffffffff16141515612f5857600960009054906101000a900473ffffffffffffffffffffffffffffffffffffffff1673ffffffffffffffffffffffffffffffffffffffff166338cc48316040518163ffffffff167c0100000000000000000000000000000000000000000000000000000000028152600401602060405180830381600087803b158015612edc57600080fd5b505af1158015612ef0573d6000803e3d6000fd5b505050506040513d6020811015612f0657600080fd5b8101908080519060200190929190505050600860006101000a81548173ffffffffffffffffffffffffffffffffffffffff021916908373ffffffffffffffffffffffffffffffffffffffff1602179055505b600860009054906101000a900473ffffffffffffffffffffffffffffffffffffffff1673ffffffffffffffffffffffffffffffffffffffff1663c281d19e6040518163ffffffff167c010000000000000000000000000000000000000000000000000000000002815260040160206040518083038186803b158015612fdc57600080fd5b505afa158015612ff0573d6000803e3d6000fd5b505050506040513d602081101561300657600080fd5b8101908080519060200190929190505050905090565b6000600460008373ffffffffffffffffffffffffffffffffffffffff1673ffffffffffffffffffffffffffffffffffffffff16815260200190815260200160002060040160405180807f6c6173744265744f665573657249640000000000000000000000000000000000815250600f019050908152602001604051809103902054905060006002828154811015156130b057fe5b9060005260206000209060030201600001546002838154811015156130d157fe5b9060005260206000209060030201600101540290506002828154811015156130f557fe5b906000526020600020906003020160000154600460008573ffffffffffffffffffffffffffffffffffffffff1673ffffffffffffffffffffffffffffffffffffffff16815260200190815260200160002060040160405180807f746f74616c4c6f7374000000000000000000000000000000000000000000000081525060090190509081526020016040518091039020600082825401925050819055506000600185149050801561348a5760016002848154811015156131b157fe5b906000526020600020906003020160020160006101000a81548160ff02191690831515021790555081600660405180807f746f74616c526577617264546f436c61696d0000000000000000000000000000815250601201905090815260200160405180910390206000828254019250508190555081600460008673ffffffffffffffffffffffffffffffffffffffff1673ffffffffffffffffffffffffffffffffffffffff16815260200190815260200160002060040160405180807f746f74616c576f6e000000000000000000000000000000000000000000000000815250600801905090815260200160405180910390206000828254019250508190555081600460008673ffffffffffffffffffffffffffffffffffffffff1673ffffffffffffffffffffffffffffffffffffffff16815260200190815260200160002060040160405180807f726577617264546f436c61696d00000000000000000000000000000000000000815250600d0190509081526020016040518091039020600082825401925050819055506000600460008673ffffffffffffffffffffffffffffffffffffffff1673ffffffffffffffffffffffffffffffffffffffff16815260200190815260200160002060020154141561341557600460008573ffffffffffffffffffffffffffffffffffffffff1673ffffffffffffffffffffffffffffffffffffffff16815260200190815260200160002060030180549050600460008673ffffffffffffffffffffffffffffffffffffffff1673ffffffffffffffffffffffffffffffffffffffff168152602001908152602001600020600201819055505b7f17532c7adbcd015b0a5706227b6aa6e9fbec5ce485d61bcd77c6a56b0096e8e6846001604051808373ffffffffffffffffffffffffffffffffffffffff1673ffffffffffffffffffffffffffffffffffffffff168152602001821515151581526020019250505060405180910390a1613534565b600160028481548110151561349b57fe5b906000526020600020906003020160020160026101000a81548160ff0219169083151502179055507f17532c7adbcd015b0a5706227b6aa6e9fbec5ce485d61bcd77c6a56b0096e8e6846000604051808373ffffffffffffffffffffffffffffffffffffffff1673ffffffffffffffffffffffffffffffffffffffff168152602001821515151581526020019250505060405180910390a15b6000600460008673ffffffffffffffffffffffffffffffffffffffff1673ffffffffffffffffffffffffffffffffffffffff16815260200190815260200160002060000160006101000a81548160ff02191690831515021790555060016002848154811015156135a057fe5b906000526020600020906003020160020160016101000a81548160ff0219169083151502179055507ffc52ebec141ce4c4821663b5604e138f815298ea8fe66fbef521548db95d4bc08484604051808373ffffffffffffffffffffffffffffffffffffffff1673ffffffffffffffffffffffffffffffffffffffff16815260200180602001838152602001828103825260188152602001807f42657420636f6d706c6574656420616e6420636c6f7365640000000000000000815250602001935050505060405180910390a15050505050565b600460003373ffffffffffffffffffffffffffffffffffffffff1673ffffffffffffffffffffffffffffffffffffffff16815260200190815260200160002060000160019054906101000a900460ff16151561378b5760033390806001815401808255809150509060018203906000526020600020016000909192909190916101000a81548173ffffffffffffffffffffffffffffffffffffffff021916908373ffffffffffffffffffffffffffffffffffffffff160217905550506001600460003373ffffffffffffffffffffffffffffffffffffffff1673ffffffffffffffffffffffffffffffffffffffff16815260200190815260200160002060000160016101000a81548160ff0219169083151502179055505b565b613795611020565b821115151561380c576040517f08c379a000000000000000000000000000000000000000000000000000000000815260040180806020018281038252601c8152602001807f616d6f756e7420746f207769746864726177203e2062616c616e63650000000081525060200191505060405180910390fd5b600081905060008361381c611020565b0390508173ffffffffffffffffffffffffffffffffffffffff166108fc859081150290604051600060405180830381858888f19350505050158015613865573d6000803e3d6000fd5b508061386f611020565b14151561387857fe5b7fa3352da71571a4ee5cbb1e86a8ee21cb920d7960c68f2769f5647000519fff75838560405180806020018473ffffffffffffffffffffffffffffffffffffffff1673ffffffffffffffffffffffffffffffffffffffff168152602001838152602001828103825260088152602001807f7769746864726177000000000000000000000000000000000000000000000000815250602001935050505060405180910390a150505050565b6000813b9050919050565b600061393761393e565b9050919050565b60008061395e731d3b2638a7cc9f2cb3d298a3da7a90b67e5506ed613922565b1115613a0057731d3b2638a7cc9f2cb3d298a3da7a90b67e5506ed600960006101000a81548173ffffffffffffffffffffffffffffffffffffffff021916908373ffffffffffffffffffffffffffffffffffffffff1602179055506139f76040805190810160405280600b81526020017f6574685f6d61696e6e6574000000000000000000000000000000000000000000815250613e95565b60019050613e92565b6000613a1f73c03a2615d5efaf5f49f60b7bb6583eaec212fdf1613922565b1115613ac15773c03a2615d5efaf5f49f60b7bb6583eaec212fdf1600960006101000a81548173ffffffffffffffffffffffffffffffffffffffff021916908373ffffffffffffffffffffffffffffffffffffffff160217905550613ab86040805190810160405280600c81526020017f6574685f726f707374656e330000000000000000000000000000000000000000815250613e95565b60019050613e92565b6000613ae073b7a07bcf2ba2f2703b24c0691b5278999c59ac7e613922565b1115613b825773b7a07bcf2ba2f2703b24c0691b5278999c59ac7e600960006101000a81548173ffffffffffffffffffffffffffffffffffffffff021916908373ffffffffffffffffffffffffffffffffffffffff160217905550613b796040805190810160405280600981526020017f6574685f6b6f76616e0000000000000000000000000000000000000000000000815250613e95565b60019050613e92565b6000613ba173146500cfd35b22e4a392fe0adc06de1a1368ed48613922565b1115613c435773146500cfd35b22e4a392fe0adc06de1a1368ed48600960006101000a81548173ffffffffffffffffffffffffffffffffffffffff021916908373ffffffffffffffffffffffffffffffffffffffff160217905550613c3a6040805190810160405280600b81526020017f6574685f72696e6b656279000000000000000000000000000000000000000000815250613e95565b60019050613e92565b6000613c6273a2998efd205fb9d4b4963afb70778d6354ad3a41613922565b1115613d045773a2998efd205fb9d4b4963afb70778d6354ad3a41600960006101000a81548173ffffffffffffffffffffffffffffffffffffffff021916908373ffffffffffffffffffffffffffffffffffffffff160217905550613cfb6040805190810160405280600a81526020017f6574685f676f65726c6900000000000000000000000000000000000000000000815250613e95565b60019050613e92565b6000613d23736f485c8bf6fc43ea212e93bbf8ce046c7f1cb475613922565b1115613d8757736f485c8bf6fc43ea212e93bbf8ce046c7f1cb475600960006101000a81548173ffffffffffffffffffffffffffffffffffffffff021916908373ffffffffffffffffffffffffffffffffffffffff16021790555060019050613e92565b6000613da67320e12a1f859b3feae5fb2a0a32c18f5a65555bbf613922565b1115613e0a577320e12a1f859b3feae5fb2a0a32c18f5a65555bbf600960006101000a81548173ffffffffffffffffffffffffffffffffffffffff021916908373ffffffffffffffffffffffffffffffffffffffff16021790555060019050613e92565b6000613e297351efaf4c8b3c9afbd5ab9f4bbc82784ab6ef8faa613922565b1115613e8d577351efaf4c8b3c9afbd5ab9f4bbc82784ab6ef8faa600960006101000a81548173ffffffffffffffffffffffffffffffffffffffff021916908373ffffffffffffffffffffffffffffffffffffffff16021790555060019050613e92565b600090505b90565b80600a9080519060200190613eab929190613eaf565b5050565b828054600181600116156101000203166002900490600052602060002090601f016020900481019282601f10613ef057805160ff1916838001178555613f1e565b82800160010185558215613f1e579182015b82811115613f1d578251825591602001919060010190613f02565b5b509050613f2b9190613f65565b5090565b60a06040519081016040528060008152602001600081526020016000151581526020016000151581526020016000151581525090565b613f8791905b80821115613f83576000816000905550600101613f6b565b5090565b9056fe73697a65206f66205f6c6973744f664163636f756e7473206e6f7420636f6e73697374656e7473697a65206f66205f6c6973744f6642657473206e6f7420636f6e73697374656e7450726f7661626c65207175657279207761732073656e742c207374616e64696e6720627920666f7220616e737765722e2e2e4e6577206265742074616b656e203a20696e697469616c697a6174696f6e2e2e2e526573756c742072656365697665642c206576616c756174696f6e206f6620746865206265742e2e2e6d696e696d756d2073686f756c64206265206c657373207468616e206d6178696d756d62616c616e6365206e65656473206d6f72652066756e64732c20746f6f206d756368207265776172647320746f20636c61696d73697a65206f66205f6163636f756e7442657473206e6f7420636f6e73697374656e746d6178696d756d2073686f756c64206265206d6f7265207468616e206d696e696d756da165627a7a72305820f23c364bbb65c2911b198fe11559c85736206f21839bb92a17e5d4056c720af10029",
  "source": "pragma solidity 0.5.2;\r\n\r\nimport \"./CoinflipBase.sol\";\r\nimport \"./provableAPI.sol\";\r\n//import \"./SafeMath.sol\";\r\n\r\ncontract CoinflipMainV2 is CoinflipBase, usingProvable {\r\n\r\n  //----------------Variables\r\n\r\n  //----------------Modifiers\r\n\r\n\r\n  //----------------Event\r\n  event evtBetOpened(address _user, string _msg, uint256 _id, uint256 _amount);\r\n  event evtBetQuery(address _user, string _msg);\r\n  event evtBetResume(address _user, string  _msg, uint256 _randomResult);\r\n  event evtBetResult(address _user, bool _isWon);\r\n  event evtBetClosed(address _user, string _status, uint256 _id);//, uint256 _amount, uint256 _jackpot, bool _isWon);\r\n\r\n  //----------------Constructor\r\n  constructor() public {\r\n  }\r\n\r\n  //----------------Getters :\r\n  function getUserPendingBetState(address _user) public view returns(bool){\r\n      return _Accounts[_user]._hasBetOpen;\r\n  }\r\n\r\n  //----------------Functions : main logic\r\n\r\n  //Main function => initialize a bet / no result => waiting for oracle\r\n  function flip() public payable isValidBet(msg.value, msg.sender) whenNotPaused {\r\n    //check if user is known\r\n    addAccount();\r\n    //INITIALIZATION of a new flip\r\n    Bet memory newBet;\r\n    newBet._amountBet = msg.value;\r\n    newBet._jackpotFactor = _uintStorage['jackpotFactor'];\r\n\r\n    uint256 lastBetId = _listOfBets.push(newBet) - 1; // = _listOfBets.length - 1\r\n    _Accounts[msg.sender]._uintAccount['lastBetOfUserId'] = lastBetId;\r\n    _Accounts[msg.sender]._accountBets.push(lastBetId);\r\n    _Accounts[msg.sender]._hasBetOpen = true;\r\n\r\n    emit evtBetOpened(msg.sender, \"New bet taken : initialization...\", lastBetId, msg.value);\r\n\r\n    //RANDOMNUMBER => emulate query to oracle process\r\n    //fake ticket id as queryId, result and proof\r\n    uint256 ident = (_Accounts[msg.sender]._accountBets.length * 10000) + (now % 10000);\r\n    bytes32 queryId = bytes32(keccak256(abi.encodePacked(ident)));\r\n\r\n    uint256 temp = ident % 2;\r\n    string memory result = (temp == 0) ? \"0\" : \"1\";\r\n\r\n    bytes memory proof = \"testproof\";\r\n\r\n    _Queries[queryId] = msg.sender;\r\n     emit evtBetQuery(msg.sender, \"Provable query was sent, standing by for answer...\");\r\n\r\n    __callback(queryId, result, proof);\r\n  }\r\n\r\n  //__callback function called by oracle => resume the process\r\n  function resumeFlip(uint256 _result, address _user) private {\r\n    //get the bet opened matching the answer\r\n    uint256 betId = _Accounts[_user]._uintAccount['lastBetOfUserId'];\r\n\r\n    uint256 jackpot = _listOfBets[betId]._jackpotFactor * _listOfBets[betId]._amountBet;\r\n    _Accounts[_user]._uintAccount['totalLost'] += _listOfBets[betId]._amountBet;\r\n\r\n    bool betIsWon = _result == 1;\r\n\r\n    //EVALUATION => set the new states\r\n    if(betIsWon) {\r\n      _listOfBets[betId]._isWin = true;\r\n      _uintStorage['totalRewardToClaim'] += jackpot;\r\n      _Accounts[_user]._uintAccount['totalWon'] += jackpot;\r\n      _Accounts[_user]._uintAccount['rewardToClaim'] += jackpot;\r\n\r\n      if (_Accounts[_user]._firstBetToClaimId == 0) {\r\n        _Accounts[_user]._firstBetToClaimId = _Accounts[_user]._accountBets.length;   //not -1, 0 is flag\r\n      }\r\n      emit evtBetResult(_user, true);\r\n    }\r\n    else {\r\n      _listOfBets[betId]._isClaimed = true;\r\n\r\n      emit evtBetResult(_user, false);\r\n    }\r\n    ////CLOSE THE BET\r\n    _Accounts[_user]._hasBetOpen = false;\r\n    _listOfBets[betId]._isClosed = true;\r\n\r\n    emit evtBetClosed(_user, \"Bet completed and closed\", betId);//, _listOfBets[betId]._amountBet, jackpot, _listOfBets[betId]._isWin);\r\n  }\r\n\r\n  //oracle callback function\r\n  function __callback(bytes32 _queryId, string memory _result, bytes memory _proof) public {\r\n      require(msg.sender == provable_cbAddress());\r\n\r\n      address user =  _Queries[_queryId];\r\n      //MEMO :\r\n      //these lines made the deployment not possible : run out of gas\r\n      //test : decreasing the bytecode / settings gas / different versions of nodes via nvm\r\n      //the only way to deploy was to remove them => so aborte not necessary\r\n      //if (provable_randomDS_proofVerify__returnCode(_queryId, _result, _proof) != 0) {\r\n           //error when processing the oracle\r\n      //     abortFlip(user);\r\n      //}\r\n      //else {\r\n          //success => data conversion to uint256 (data on BC are bytes)\r\n          uint256 randomNumber = uint256(keccak256(abi.encodePacked(_result)));\r\n          //test parity (rule of the game)\r\n          uint256 result = randomNumber % 2;\r\n\r\n          //emit evtTesting(\"bet callback, number : \",randomNumber);\r\n          emit evtBetResume(user, \"Result received, evaluation of the bet...\", randomNumber);\r\n          resumeFlip(result, user);\r\n      //}\r\n  }\r\n\r\n  //MEMO : see __callback\r\n  //Todo : instead of abort cause of an error => enable aborted flip by user\r\n  // function abortFlip(address _user) private {\r\n  //   uint256 betId = _Accounts[_user]._uintAccount['lastBetOfUserId'];\r\n  //   uint256 amountToRefund = _listOfBets[betId]._amountBet;\r\n  //\r\n  //   _listOfBets[betId]._isClaimed = true;\r\n  //   _Accounts[_user]._hasBetOpen = false;\r\n  //   _listOfBets[betId]._isClosed = true;\r\n  //\r\n  //   withdraw(amountToRefund, _user);\r\n  //   emit evtBetClosed(_user, \"Aborted, refund in progress...\", betId);//, amountToRefund, 0, false);\r\n  // }\r\n\r\n}\r\n",
  "sourcePath": "C:\\Xdev\\blockchain\\ethereumCourseAdvanced\\CoinflipDapp\\contracts\\CoinflipMainV2.sol",
  "compiler": {
    "name": "solc",
    "version": "0.5.2+commit.1df8f40c.Emscripten.clang"
  },
  "schemaVersion": "3.1.0",
  "updatedAt": "2020-05-22T21:08:47.335Z",
  "networkType": "ethereum",
  "devdoc": {
    "methods": {
      "__callback(bytes32,string)": {
        "details": "The following `__callback` functions are just placeholders ideally     meant to be defined in child contract when proofs are used.     The function bodies simply silence compiler warnings."
      }
    }
  },
  "userdoc": {
    "methods": {}
  }
}